{
  "_format": "hh-sol-artifact-1",
  "contractName": "PrimaryIssuePool",
  "sourceName": "contracts/PrimaryIssuePool.sol",
  "abi": [
    {
      "inputs": [
        {
          "internalType": "contract IVault",
          "name": "vault",
          "type": "address"
        },
        {
          "internalType": "address",
          "name": "security",
          "type": "address"
        },
        {
          "internalType": "address",
          "name": "currency",
          "type": "address"
        },
        {
          "internalType": "uint256",
          "name": "minimumPrice",
          "type": "uint256"
        },
        {
          "internalType": "uint256",
          "name": "basePrice",
          "type": "uint256"
        },
        {
          "internalType": "uint256",
          "name": "maxSecurityOffered",
          "type": "uint256"
        },
        {
          "internalType": "uint256",
          "name": "issueFeePercentage",
          "type": "uint256"
        },
        {
          "internalType": "uint256",
          "name": "pauseWindowDuration",
          "type": "uint256"
        },
        {
          "internalType": "uint256",
          "name": "bufferPeriodDuration",
          "type": "uint256"
        },
        {
          "internalType": "uint256",
          "name": "issueCutoffTime",
          "type": "uint256"
        },
        {
          "internalType": "address",
          "name": "owner",
          "type": "address"
        }
      ],
      "stateMutability": "nonpayable",
      "type": "constructor"
    },
    {
      "anonymous": false,
      "inputs": [
        {
          "indexed": true,
          "internalType": "address",
          "name": "owner",
          "type": "address"
        },
        {
          "indexed": true,
          "internalType": "address",
          "name": "spender",
          "type": "address"
        },
        {
          "indexed": false,
          "internalType": "uint256",
          "name": "value",
          "type": "uint256"
        }
      ],
      "name": "Approval",
      "type": "event"
    },
    {
      "anonymous": false,
      "inputs": [
        {
          "indexed": true,
          "internalType": "address",
          "name": "security",
          "type": "address"
        },
        {
          "indexed": false,
          "internalType": "uint256",
          "name": "openingPrice",
          "type": "uint256"
        },
        {
          "indexed": false,
          "internalType": "uint256",
          "name": "securityOffered",
          "type": "uint256"
        }
      ],
      "name": "OpenIssue",
      "type": "event"
    },
    {
      "anonymous": false,
      "inputs": [
        {
          "indexed": false,
          "internalType": "bool",
          "name": "paused",
          "type": "bool"
        }
      ],
      "name": "PausedStateChanged",
      "type": "event"
    },
    {
      "anonymous": false,
      "inputs": [
        {
          "indexed": false,
          "internalType": "bool",
          "name": "enabled",
          "type": "bool"
        }
      ],
      "name": "RecoveryModeStateChanged",
      "type": "event"
    },
    {
      "anonymous": false,
      "inputs": [
        {
          "indexed": true,
          "internalType": "address",
          "name": "security",
          "type": "address"
        },
        {
          "indexed": false,
          "internalType": "address",
          "name": "assetIn",
          "type": "address"
        },
        {
          "indexed": false,
          "internalType": "string",
          "name": "assetName",
          "type": "string"
        },
        {
          "indexed": false,
          "internalType": "uint256",
          "name": "amount",
          "type": "uint256"
        },
        {
          "indexed": false,
          "internalType": "address",
          "name": "investor",
          "type": "address"
        },
        {
          "indexed": false,
          "internalType": "uint256",
          "name": "price",
          "type": "uint256"
        }
      ],
      "name": "Subscription",
      "type": "event"
    },
    {
      "anonymous": false,
      "inputs": [
        {
          "indexed": false,
          "internalType": "uint256",
          "name": "swapFeePercentage",
          "type": "uint256"
        }
      ],
      "name": "SwapFeePercentageChanged",
      "type": "event"
    },
    {
      "anonymous": false,
      "inputs": [
        {
          "indexed": true,
          "internalType": "address",
          "name": "from",
          "type": "address"
        },
        {
          "indexed": true,
          "internalType": "address",
          "name": "to",
          "type": "address"
        },
        {
          "indexed": false,
          "internalType": "uint256",
          "name": "value",
          "type": "uint256"
        }
      ],
      "name": "Transfer",
      "type": "event"
    },
    {
      "inputs": [],
      "name": "DOMAIN_SEPARATOR",
      "outputs": [
        {
          "internalType": "bytes32",
          "name": "",
          "type": "bytes32"
        }
      ],
      "stateMutability": "view",
      "type": "function"
    },
    {
      "inputs": [
        {
          "internalType": "address",
          "name": "owner",
          "type": "address"
        },
        {
          "internalType": "address",
          "name": "spender",
          "type": "address"
        }
      ],
      "name": "allowance",
      "outputs": [
        {
          "internalType": "uint256",
          "name": "",
          "type": "uint256"
        }
      ],
      "stateMutability": "view",
      "type": "function"
    },
    {
      "inputs": [
        {
          "internalType": "address",
          "name": "spender",
          "type": "address"
        },
        {
          "internalType": "uint256",
          "name": "amount",
          "type": "uint256"
        }
      ],
      "name": "approve",
      "outputs": [
        {
          "internalType": "bool",
          "name": "",
          "type": "bool"
        }
      ],
      "stateMutability": "nonpayable",
      "type": "function"
    },
    {
      "inputs": [
        {
          "internalType": "address",
          "name": "account",
          "type": "address"
        }
      ],
      "name": "balanceOf",
      "outputs": [
        {
          "internalType": "uint256",
          "name": "",
          "type": "uint256"
        }
      ],
      "stateMutability": "view",
      "type": "function"
    },
    {
      "inputs": [],
      "name": "decimals",
      "outputs": [
        {
          "internalType": "uint8",
          "name": "",
          "type": "uint8"
        }
      ],
      "stateMutability": "view",
      "type": "function"
    },
    {
      "inputs": [
        {
          "internalType": "address",
          "name": "spender",
          "type": "address"
        },
        {
          "internalType": "uint256",
          "name": "amount",
          "type": "uint256"
        }
      ],
      "name": "decreaseAllowance",
      "outputs": [
        {
          "internalType": "bool",
          "name": "",
          "type": "bool"
        }
      ],
      "stateMutability": "nonpayable",
      "type": "function"
    },
    {
      "inputs": [],
      "name": "disableRecoveryMode",
      "outputs": [],
      "stateMutability": "nonpayable",
      "type": "function"
    },
    {
      "inputs": [],
      "name": "enableRecoveryMode",
      "outputs": [],
      "stateMutability": "nonpayable",
      "type": "function"
    },
    {
      "inputs": [],
      "name": "exit",
      "outputs": [],
      "stateMutability": "nonpayable",
      "type": "function"
    },
    {
      "inputs": [
        {
          "internalType": "bytes4",
          "name": "selector",
          "type": "bytes4"
        }
      ],
      "name": "getActionId",
      "outputs": [
        {
          "internalType": "bytes32",
          "name": "",
          "type": "bytes32"
        }
      ],
      "stateMutability": "view",
      "type": "function"
    },
    {
      "inputs": [],
      "name": "getAuthorizer",
      "outputs": [
        {
          "internalType": "contract IAuthorizer",
          "name": "",
          "type": "address"
        }
      ],
      "stateMutability": "view",
      "type": "function"
    },
    {
      "inputs": [],
      "name": "getCurrency",
      "outputs": [
        {
          "internalType": "address",
          "name": "",
          "type": "address"
        }
      ],
      "stateMutability": "view",
      "type": "function"
    },
    {
      "inputs": [],
      "name": "getOwner",
      "outputs": [
        {
          "internalType": "address",
          "name": "",
          "type": "address"
        }
      ],
      "stateMutability": "view",
      "type": "function"
    },
    {
      "inputs": [],
      "name": "getPausedState",
      "outputs": [
        {
          "internalType": "bool",
          "name": "paused",
          "type": "bool"
        },
        {
          "internalType": "uint256",
          "name": "pauseWindowEndTime",
          "type": "uint256"
        },
        {
          "internalType": "uint256",
          "name": "bufferPeriodEndTime",
          "type": "uint256"
        }
      ],
      "stateMutability": "view",
      "type": "function"
    },
    {
      "inputs": [],
      "name": "getPoolId",
      "outputs": [
        {
          "internalType": "bytes32",
          "name": "",
          "type": "bytes32"
        }
      ],
      "stateMutability": "view",
      "type": "function"
    },
    {
      "inputs": [],
      "name": "getProtocolFeesCollector",
      "outputs": [
        {
          "internalType": "contract IProtocolFeesCollector",
          "name": "",
          "type": "address"
        }
      ],
      "stateMutability": "view",
      "type": "function"
    },
    {
      "inputs": [],
      "name": "getScalingFactors",
      "outputs": [
        {
          "internalType": "uint256[]",
          "name": "",
          "type": "uint256[]"
        }
      ],
      "stateMutability": "view",
      "type": "function"
    },
    {
      "inputs": [],
      "name": "getSecurity",
      "outputs": [
        {
          "internalType": "address",
          "name": "",
          "type": "address"
        }
      ],
      "stateMutability": "view",
      "type": "function"
    },
    {
      "inputs": [],
      "name": "getSwapFeePercentage",
      "outputs": [
        {
          "internalType": "uint256",
          "name": "",
          "type": "uint256"
        }
      ],
      "stateMutability": "view",
      "type": "function"
    },
    {
      "inputs": [],
      "name": "getVault",
      "outputs": [
        {
          "internalType": "contract IVault",
          "name": "",
          "type": "address"
        }
      ],
      "stateMutability": "view",
      "type": "function"
    },
    {
      "inputs": [],
      "name": "inRecoveryMode",
      "outputs": [
        {
          "internalType": "bool",
          "name": "",
          "type": "bool"
        }
      ],
      "stateMutability": "view",
      "type": "function"
    },
    {
      "inputs": [
        {
          "internalType": "address",
          "name": "spender",
          "type": "address"
        },
        {
          "internalType": "uint256",
          "name": "addedValue",
          "type": "uint256"
        }
      ],
      "name": "increaseAllowance",
      "outputs": [
        {
          "internalType": "bool",
          "name": "",
          "type": "bool"
        }
      ],
      "stateMutability": "nonpayable",
      "type": "function"
    },
    {
      "inputs": [],
      "name": "initialize",
      "outputs": [],
      "stateMutability": "nonpayable",
      "type": "function"
    },
    {
      "inputs": [],
      "name": "name",
      "outputs": [
        {
          "internalType": "string",
          "name": "",
          "type": "string"
        }
      ],
      "stateMutability": "view",
      "type": "function"
    },
    {
      "inputs": [
        {
          "internalType": "address",
          "name": "owner",
          "type": "address"
        }
      ],
      "name": "nonces",
      "outputs": [
        {
          "internalType": "uint256",
          "name": "",
          "type": "uint256"
        }
      ],
      "stateMutability": "view",
      "type": "function"
    },
    {
      "inputs": [
        {
          "internalType": "bytes32",
          "name": "poolId",
          "type": "bytes32"
        },
        {
          "internalType": "address",
          "name": "sender",
          "type": "address"
        },
        {
          "internalType": "address",
          "name": "recipient",
          "type": "address"
        },
        {
          "internalType": "uint256[]",
          "name": "balances",
          "type": "uint256[]"
        },
        {
          "internalType": "uint256",
          "name": "lastChangeBlock",
          "type": "uint256"
        },
        {
          "internalType": "uint256",
          "name": "protocolSwapFeePercentage",
          "type": "uint256"
        },
        {
          "internalType": "bytes",
          "name": "userData",
          "type": "bytes"
        }
      ],
      "name": "onExitPool",
      "outputs": [
        {
          "internalType": "uint256[]",
          "name": "",
          "type": "uint256[]"
        },
        {
          "internalType": "uint256[]",
          "name": "",
          "type": "uint256[]"
        }
      ],
      "stateMutability": "nonpayable",
      "type": "function"
    },
    {
      "inputs": [
        {
          "internalType": "bytes32",
          "name": "poolId",
          "type": "bytes32"
        },
        {
          "internalType": "address",
          "name": "sender",
          "type": "address"
        },
        {
          "internalType": "address",
          "name": "recipient",
          "type": "address"
        },
        {
          "internalType": "uint256[]",
          "name": "balances",
          "type": "uint256[]"
        },
        {
          "internalType": "uint256",
          "name": "lastChangeBlock",
          "type": "uint256"
        },
        {
          "internalType": "uint256",
          "name": "protocolSwapFeePercentage",
          "type": "uint256"
        },
        {
          "internalType": "bytes",
          "name": "userData",
          "type": "bytes"
        }
      ],
      "name": "onJoinPool",
      "outputs": [
        {
          "internalType": "uint256[]",
          "name": "",
          "type": "uint256[]"
        },
        {
          "internalType": "uint256[]",
          "name": "",
          "type": "uint256[]"
        }
      ],
      "stateMutability": "nonpayable",
      "type": "function"
    },
    {
      "inputs": [
        {
          "components": [
            {
              "internalType": "enum IVault.SwapKind",
              "name": "kind",
              "type": "uint8"
            },
            {
              "internalType": "contract IERC20",
              "name": "tokenIn",
              "type": "address"
            },
            {
              "internalType": "contract IERC20",
              "name": "tokenOut",
              "type": "address"
            },
            {
              "internalType": "uint256",
              "name": "amount",
              "type": "uint256"
            },
            {
              "internalType": "bytes32",
              "name": "poolId",
              "type": "bytes32"
            },
            {
              "internalType": "uint256",
              "name": "lastChangeBlock",
              "type": "uint256"
            },
            {
              "internalType": "address",
              "name": "from",
              "type": "address"
            },
            {
              "internalType": "address",
              "name": "to",
              "type": "address"
            },
            {
              "internalType": "bytes",
              "name": "userData",
              "type": "bytes"
            }
          ],
          "internalType": "struct IPoolSwapStructs.SwapRequest",
          "name": "request",
          "type": "tuple"
        },
        {
          "internalType": "uint256[]",
          "name": "balances",
          "type": "uint256[]"
        },
        {
          "internalType": "uint256",
          "name": "indexIn",
          "type": "uint256"
        },
        {
          "internalType": "uint256",
          "name": "indexOut",
          "type": "uint256"
        }
      ],
      "name": "onSwap",
      "outputs": [
        {
          "internalType": "uint256",
          "name": "",
          "type": "uint256"
        }
      ],
      "stateMutability": "nonpayable",
      "type": "function"
    },
    {
      "inputs": [],
      "name": "pause",
      "outputs": [],
      "stateMutability": "nonpayable",
      "type": "function"
    },
    {
      "inputs": [
        {
          "internalType": "address",
          "name": "owner",
          "type": "address"
        },
        {
          "internalType": "address",
          "name": "spender",
          "type": "address"
        },
        {
          "internalType": "uint256",
          "name": "value",
          "type": "uint256"
        },
        {
          "internalType": "uint256",
          "name": "deadline",
          "type": "uint256"
        },
        {
          "internalType": "uint8",
          "name": "v",
          "type": "uint8"
        },
        {
          "internalType": "bytes32",
          "name": "r",
          "type": "bytes32"
        },
        {
          "internalType": "bytes32",
          "name": "s",
          "type": "bytes32"
        }
      ],
      "name": "permit",
      "outputs": [],
      "stateMutability": "nonpayable",
      "type": "function"
    },
    {
      "inputs": [
        {
          "internalType": "bytes32",
          "name": "poolId",
          "type": "bytes32"
        },
        {
          "internalType": "address",
          "name": "sender",
          "type": "address"
        },
        {
          "internalType": "address",
          "name": "recipient",
          "type": "address"
        },
        {
          "internalType": "uint256[]",
          "name": "balances",
          "type": "uint256[]"
        },
        {
          "internalType": "uint256",
          "name": "lastChangeBlock",
          "type": "uint256"
        },
        {
          "internalType": "uint256",
          "name": "protocolSwapFeePercentage",
          "type": "uint256"
        },
        {
          "internalType": "bytes",
          "name": "userData",
          "type": "bytes"
        }
      ],
      "name": "queryExit",
      "outputs": [
        {
          "internalType": "uint256",
          "name": "bptIn",
          "type": "uint256"
        },
        {
          "internalType": "uint256[]",
          "name": "amountsOut",
          "type": "uint256[]"
        }
      ],
      "stateMutability": "view",
      "type": "function"
    },
    {
      "inputs": [
        {
          "internalType": "bytes32",
          "name": "poolId",
          "type": "bytes32"
        },
        {
          "internalType": "address",
          "name": "sender",
          "type": "address"
        },
        {
          "internalType": "address",
          "name": "recipient",
          "type": "address"
        },
        {
          "internalType": "uint256[]",
          "name": "balances",
          "type": "uint256[]"
        },
        {
          "internalType": "uint256",
          "name": "lastChangeBlock",
          "type": "uint256"
        },
        {
          "internalType": "uint256",
          "name": "protocolSwapFeePercentage",
          "type": "uint256"
        },
        {
          "internalType": "bytes",
          "name": "userData",
          "type": "bytes"
        }
      ],
      "name": "queryJoin",
      "outputs": [
        {
          "internalType": "uint256",
          "name": "bptOut",
          "type": "uint256"
        },
        {
          "internalType": "uint256[]",
          "name": "amountsIn",
          "type": "uint256[]"
        }
      ],
      "stateMutability": "view",
      "type": "function"
    },
    {
      "inputs": [
        {
          "internalType": "contract IERC20",
          "name": "token",
          "type": "address"
        },
        {
          "internalType": "bytes",
          "name": "poolConfig",
          "type": "bytes"
        }
      ],
      "name": "setAssetManagerPoolConfig",
      "outputs": [],
      "stateMutability": "nonpayable",
      "type": "function"
    },
    {
      "inputs": [
        {
          "internalType": "uint256",
          "name": "swapFeePercentage",
          "type": "uint256"
        }
      ],
      "name": "setSwapFeePercentage",
      "outputs": [],
      "stateMutability": "nonpayable",
      "type": "function"
    },
    {
      "inputs": [],
      "name": "symbol",
      "outputs": [
        {
          "internalType": "string",
          "name": "",
          "type": "string"
        }
      ],
      "stateMutability": "view",
      "type": "function"
    },
    {
      "inputs": [],
      "name": "totalSupply",
      "outputs": [
        {
          "internalType": "uint256",
          "name": "",
          "type": "uint256"
        }
      ],
      "stateMutability": "view",
      "type": "function"
    },
    {
      "inputs": [
        {
          "internalType": "address",
          "name": "recipient",
          "type": "address"
        },
        {
          "internalType": "uint256",
          "name": "amount",
          "type": "uint256"
        }
      ],
      "name": "transfer",
      "outputs": [
        {
          "internalType": "bool",
          "name": "",
          "type": "bool"
        }
      ],
      "stateMutability": "nonpayable",
      "type": "function"
    },
    {
      "inputs": [
        {
          "internalType": "address",
          "name": "sender",
          "type": "address"
        },
        {
          "internalType": "address",
          "name": "recipient",
          "type": "address"
        },
        {
          "internalType": "uint256",
          "name": "amount",
          "type": "uint256"
        }
      ],
      "name": "transferFrom",
      "outputs": [
        {
          "internalType": "bool",
          "name": "",
          "type": "bool"
        }
      ],
      "stateMutability": "nonpayable",
      "type": "function"
    },
    {
      "inputs": [],
      "name": "unpause",
      "outputs": [],
      "stateMutability": "nonpayable",
      "type": "function"
    }
  ],
  "bytecode": "0x6102c06040527f6e71edae12b1b97f4d1f60370fef10105fa2faae0126114a169c64845d6126c960e0523480156200003657600080fd5b50604051620049f2380380620049f2833981016040819052620000599162000ae1565b8a60008b6001600160a01b03166306fdde036040518163ffffffff1660e01b815260040160006040518083038186803b1580156200009657600080fd5b505afa158015620000ab573d6000803e3d6000fd5b505050506040513d6000823e601f3d908101601f19168201604052620000d5919081019062000b92565b8c6001600160a01b03166395d89b416040518163ffffffff1660e01b815260040160006040518083038186803b1580156200010f57600080fd5b505afa15801562000124573d6000803e3d6000fd5b505050506040513d6000823e601f3d908101601f191682016040526200014e919081019062000b92565b6200015a8e8e62000531565b6040805160028082526060820183529091602083019080368337019050508a8a8a89828289898d85336001600160a01b031660001b8480604051806040016040528060018152602001603160f81b81525087878160039080519060200190620001c592919062000a0d565b508051620001db90600490602084019062000a0d565b50506005805460ff19166012179055508151602092830120608052805191012060a052507f8b73c3c69bb8fe3d512ecc4cf759cc79239f7b179b0ffacaa9a75d522b39400f60c052610100526001600160601b0319606091821b81166101205291901b1661014052506200025a90506276a700831115610194620005e2565b6200026e62278d00821115610195620005e2565b429091016101608190520161018052855162000290906002111560c8620005e2565b620002aa6200029e620005f7565b8751111560c9620005e2565b620002c086620005fc60201b6200136d1760201c565b620002cb8462000608565b6040516309b2760f60e01b81526000906001600160a01b038c16906309b2760f90620002fc908d9060040162000d14565b602060405180830381600087803b1580156200031757600080fd5b505af11580156200032c573d6000803e3d6000fd5b505050506040513d601f19601f8201168201806040525081019062000352919062000aa9565b604051633354e3e960e11b81529091506001600160a01b038c16906366a9c7d290620003879084908b908b9060040162000c78565b600060405180830381600087803b158015620003a257600080fd5b505af1158015620003b7573d6000803e3d6000fd5b50505050806101a081815250508a6001600160a01b031663d2946c2b6040518163ffffffff1660e01b815260040160206040518083038186803b158015620003fe57600080fd5b505afa15801562000413573d6000803e3d6000fd5b505050506040513d601f19601f8201168201806040525081019062000439919062000ac2565b6001600160a01b03166101c0816001600160a01b031660601b815250505050505050505050505050896001600160a01b03166101e0816001600160a01b031660601b81525050886001600160a01b0316610200816001600160a01b031660601b815250506000806000620004b58d8d306200069c60201b60201c565b6102608390526102808290526102a081905291945092509050620004d98d62000792565b61022052620004e88c62000792565b61024052505050600997909755600a95909555505050600b55600c5542600d55600e80546001600160a01b0319166001600160a01b039092169190911790555062000d54915050565b6040805160028082526060808301845292602083019080368337019050509050816001600160a01b0316836001600160a01b03161162000572578262000574565b815b816000815181106200058257fe5b6001600160a01b0392831660209182029290920101528281169084161115620005ac5782620005ae565b815b81600181518110620005bc57fe5b60200260200101906001600160a01b031690816001600160a01b03168152505092915050565b81620005f357620005f38162000866565b5050565b600290565b80620005f381620008b9565b620006216200061662000946565b82101560cb620005e2565b6200063a6200062f6200094f565b82111560ca620005e2565b6200065c8160c060406008546200095b60201b6200137717909392919060201c565b6008556040517fa9ba3ffe0b6c366b81232caab38605a0699ad5398d6cce76f91ee809e322dafc906200069190839062000d29565b60405180910390a150565b6000806000846001600160a01b0316866001600160a01b031610156200072557836001600160a01b0316856001600160a01b03161015620006e857506000915060019050600262000789565b836001600160a01b0316866001600160a01b031610156200071457506000915060029050600162000789565b506001915060029050600062000789565b846001600160a01b0316846001600160a01b031610156200075157506002915060019050600062000789565b856001600160a01b0316846001600160a01b031610156200077d57506002915060009050600162000789565b50600191506000905060025b93509350939050565b60006001600160a01b038216301415620007b65750670de0b6b3a764000062000861565b6000826001600160a01b031663313ce5676040518163ffffffff1660e01b815260040160206040518083038186803b158015620007f257600080fd5b505afa15801562000807573d6000803e3d6000fd5b505050506040513d601f19601f820116820180604052508101906200082d919062000c55565b60ff16905060006200084c6012836200098060201b6200139a1760201c565b905080600a0a670de0b6b3a764000002925050505b919050565b62461bcd60e51b6000908152602060045260076024526642414c23000030600a808404818106603090810160081b95839006959095019082900491820690940160101b939093010160c81b604452606490fd5b600281511015620008ca5762000943565b600081600081518110620008da57fe5b602002602001015190506000600190505b8251811015620009405760008382815181106200090457fe5b6020026020010151905062000935816001600160a01b0316846001600160a01b0316106065620005e260201b60201c565b9150600101620008eb565b50505b50565b64e8d4a5100090565b67016345785d8a000090565b60006200096a84848462000998565b506001901b60001901811b1992909216911b1790565b600062000992838311156001620005e2565b50900390565b620009a961010083106064620005e2565b620009e260018210158015620009da5750620009d660ff8461010003620009f360201b620013b01760201c565b8211155b6064620005e2565b6200094083821c156101b4620005e2565b600081831062000a04578162000a06565b825b9392505050565b828054600181600116156101000203166002900490600052602060002090601f016020900481019282601f1062000a5057805160ff191683800117855562000a80565b8280016001018555821562000a80579182015b8281111562000a8057825182559160200191906001019062000a63565b5062000a8e92915062000a92565b5090565b5b8082111562000a8e576000815560010162000a93565b60006020828403121562000abb578081fd5b5051919050565b60006020828403121562000ad4578081fd5b815162000a068162000d3e565b60008060008060008060008060008060006101608c8e03121562000b03578687fd5b8b5162000b108162000d3e565b60208d0151909b5062000b238162000d3e565b60408d0151909a5062000b368162000d3e565b8099505060608c0151975060808c0151965060a08c0151955060c08c0151945060e08c015193506101008c015192506101208c015191506101408c015162000b7e8162000d3e565b809150509295989b509295989b9093969950565b6000602080838503121562000ba5578182fd5b82516001600160401b038082111562000bbc578384fd5b818501915085601f83011262000bd0578384fd5b81518181111562000bdf578485fd5b604051601f8201601f191681018501838111828210171562000bff578687fd5b604052818152838201850188101562000c16578586fd5b8592505b8183101562000c39578383018501518184018601529184019162000c1a565b8183111562000c4a57858583830101525b979650505050505050565b60006020828403121562000c67578081fd5b815160ff8116811462000a06578182fd5b60006060820185835260206060818501528186518084526080860191508288019350845b8181101562000cc45762000cb1855162000d32565b8352938301939183019160010162000c9c565b505084810360408601528551808252908201925081860190845b8181101562000d065762000cf3835162000d32565b8552938301939183019160010162000cde565b509298975050505050505050565b602081016003831062000d2357fe5b91905290565b90815260200190565b6001600160a01b031690565b6001600160a01b03811681146200094357600080fd5b60805160a05160c05160e051610100516101205160601c6101405160601c61016051610180516101a0516101c05160601c6101e05160601c6102005160601c610220516102405161026051610280516102a051613b0a62000ee860003980611496525080611455528061227152806122b352806126385280612a375280612a6a5280612b5a525080611414528061222b528061266c528061269f52806129f15280612b8e5280612bc1525050508061093b5280610b0652806111ea528061152f52806115da52806121a652806121e75280612739528061275a528061289c52806128bd528061296c52806129ad5250806107fb5280610ab85280610c88528061119c52806114df5280611591528061233a528061235b528061237c528061247352806124be52806124df52806125b352806125f4528061271852806128515280612ad55280612b16525080610eaf52508061084e5250806116d85250806116b4525080610db5525080610d91525080610d1b525080610f065250806117de5250806118205250806117ff5250613b0a6000f3fe608060405234801561001057600080fd5b50600436106102ad5760003560e01c806370a082311161017b578063a457c2d7116100d8578063d2946c2b1161008c578063d5c096c411610071578063d5c096c4146104fb578063dd62ed3e1461050e578063e9fad8ee14610521576102ad565b8063d2946c2b146104e0578063d505accf146104e8576102ad565b8063aaabadc5116100bd578063aaabadc5146104c8578063b35056b8146104d0578063b7b814fc146104d8576102ad565b8063a457c2d7146104a2578063a9059cbb146104b5576102ad565b8063851c1bb31161012f578063893d20e811610114578063893d20e81461048a5780638d928af81461049257806395d89b411461049a576102ad565b8063851c1bb31461046457806387ec681714610477576102ad565b80637ecebe00116101605780637ecebe00146104415780638129fc1c146104545780638456cb591461045c576102ad565b806370a082311461040d57806374f3b00914610420576102ad565b80633644e5151161022957806350dd6ed9116101dd57806355c67628116101c257806355c67628146103dc5780636028bfd4146103e45780636945c1fd14610405576102ad565b806350dd6ed9146103c157806354a844ba146103d4576102ad565b806338fff2d01161020e57806338fff2d01461039e57806339509351146103a65780633f4ba83a146103b9576102ad565b80633644e5151461038157806338e9922e14610389576102ad565b80631c0de0511161028057806323b872dd1161026557806323b872dd146103445780632541897f14610357578063313ce5671461036c576102ad565b80631c0de051146103185780631dd746ea1461032f576102ad565b806301ec954a146102b257806306fdde03146102db578063095ea7b3146102f057806318160ddd14610310575b600080fd5b6102c56102c0366004613498565b610529565b6040516102d2919061387e565b60405180910390f35b6102e3610698565b6040516102d291906139ed565b6103036102fe36600461328d565b61072e565b6040516102d2919061385b565b6102c5610745565b61032061074b565b6040516102d293929190613866565b610337610774565b6040516102d29190613823565b6103036103523660046131dd565b610783565b61035f6107f9565b6040516102d291906137d0565b61037461081d565b6040516102d29190613a27565b6102c5610826565b61039c6103973660046135b7565b610830565b005b6102c561084c565b6103036103b436600461328d565b610870565b61039c6108ab565b61039c6103cf3660046133d7565b6108bf565b61039c6108dd565b6102c56108ef565b6103f76103f23660046132d8565b610902565b6040516102d2929190613a00565b61035f610939565b6102c561041b366004613189565b61095d565b61043361042e3660046132d8565b610978565b6040516102d2929190613836565b6102c561044f366004613189565b610a7b565b61039c610a96565b61039c610d05565b6102c561047236600461337b565b610d17565b6103f76104853660046132d8565b610d69565b61035f610d8f565b61035f610db3565b6102e3610dd7565b6103036104b036600461328d565b610e38565b6103036104c336600461328d565b610e76565b61035f610e83565b610303610e8d565b61039c610e9b565b61035f610ead565b61039c6104f636600461321d565b610ed1565b6104336105093660046132d8565b61101a565b6102c561051c3660046131a5565b61113d565b61039c61117a565b6000846080015161055661053b610db3565b6001600160a01b0316336001600160a01b03161460cd6113c6565b61056b61056161084c565b82146101f46113c6565b4261057a600d54600c546113d4565b101561058557600080fd5b606061058f6113e4565b9050610599613051565b60405180606001604052806105ac6108ef565b81526009546020820152600a5460409091015290506000885160018111156105d057fe5b1415610632576105f788606001518388815181106105ea57fe5b60200260200101516114cf565b606089015260006106098989846114db565b90506106288184888151811061061b57fe5b6020026020010151611581565b945050505061068f565b60018851600181111561064157fe5b141561068c5761065b88606001518387815181106105ea57fe5b6060890152600061066d89898461158d565b90506106288184898151811061067f57fe5b6020026020010151611621565b50505b50949350505050565b60038054604080516020601f60026000196101006001881615020190951694909404938401819004810282018101909252828152606093909290918301828280156107245780601f106106f957610100808354040283529160200191610724565b820191906000526020600020905b81548152906001019060200180831161070757829003601f168201915b5050505050905090565b600061073b33848461162d565b5060015b92915050565b60025490565b6000806000610758611695565b1592506107636116b2565b915061076d6116d6565b9050909192565b606061077e6113e4565b905090565b600080610790853361113d565b90506107b4336001600160a01b03871614806107ac5750838210155b61019e6113c6565b6107bf8585856116fa565b336001600160a01b038616148015906107da57506000198114155b156107ec576107ec853385840361162d565b60019150505b9392505050565b7f000000000000000000000000000000000000000000000000000000000000000090565b60055460ff1690565b600061077e6117da565b610838611877565b6108406118bd565b610849816118d0565b50565b7f000000000000000000000000000000000000000000000000000000000000000090565b3360008181526001602090815260408083206001600160a01b0387168452909152812054909161073b9185906108a69086611949565b61162d565b6108b3611877565b6108bd600061195b565b565b6108c7611877565b6108cf6118bd565b6108d982826119ec565b5050565b6108e5611877565b6108bd6001611b04565b60085460009061077e9060c06040611b64565b600060606109188651610913611b73565b611b78565b61092d89898989898989611b85611ba1611c07565b97509795505050505050565b7f000000000000000000000000000000000000000000000000000000000000000090565b6001600160a01b031660009081526020819052604090205490565b6060808861098761053b610db3565b61099261056161084c565b6060600061099f86611d96565b156109c7576109ac611dc5565b6109be896109b8610745565b88611ddc565b92509050610a19565b6109cf6118bd565b60606109d96113e4565b90506109e58a82611e08565b610a098d8d8d8d8d6109f5610e8d565b6109ff578d610a02565b60005b878e611b85565b93509150610a178382611ba1565b505b610a238b82611e69565b81895167ffffffffffffffff81118015610a3c57600080fd5b50604051908082528060200260200182016040528015610a66578160200160208202803683370190505b509450945050505b5097509795505050505050565b6001600160a01b031660009081526006602052604090205490565b60408051600280825260608083018452926020830190803683370190505090507f000000000000000000000000000000000000000000000000000000000000000081600081518110610ae457fe5b60200260200101906001600160a01b031690816001600160a01b0316815250507f000000000000000000000000000000000000000000000000000000000000000081600181518110610b3257fe5b6001600160a01b0392909216602092830291909101909101526040805160028082526060828101909352816020016020820280368337019050509050600b5481600081518110610b7e57fe5b602002602001018181525050610b9a600b546009546000611e73565b81600181518110610ba757fe5b602002602001018181525050610bbb613072565b50604080516080810182528381526020808201849052825190810183526000808252928201526060810182905290610bf1610db3565b9050806001600160a01b031663b95cac28610c0a61084c565b600e546040517fffffffff0000000000000000000000000000000000000000000000000000000060e085901b168152610c5492916001600160a01b03169030908890600401613887565b600060405180830381600087803b158015610c6e57600080fd5b505af1158015610c82573d6000803e3d6000fd5b505050507f00000000000000000000000000000000000000000000000000000000000000006001600160a01b03167f2ff44dbb0303f55765e029034ee75f22982a1e2a04f0050bdc5f2bd0e2e3a67760095485600181518110610ce157fe5b6020026020010151604051610cf7929190613a19565b60405180910390a250505050565b610d0d611877565b6108bd600161195b565b60007f000000000000000000000000000000000000000000000000000000000000000082604051602001610d4c92919061375a565b604051602081830303815290604052805190602001209050919050565b60006060610d7a8651610913611b73565b61092d89898989898989611b85611e9b611c07565b7f000000000000000000000000000000000000000000000000000000000000000090565b7f000000000000000000000000000000000000000000000000000000000000000090565b60048054604080516020601f60026000196101006001881615020190951694909404938401819004810282018101909252828152606093909290918301828280156107245780601f106106f957610100808354040283529160200191610724565b600080610e45338561113d565b9050808310610e5f57610e5a3385600061162d565b610e6c565b610e6c338585840361162d565b5060019392505050565b600061073b3384846116fa565b600061077e611efc565b600754610100900460ff1690565b610ea3611877565b6108bd6000611b04565b7f000000000000000000000000000000000000000000000000000000000000000090565b610edf8442111560d16113c6565b6001600160a01b0387166000908152600660209081526040808320549051909291610f36917f0000000000000000000000000000000000000000000000000000000000000000918c918c918c9188918d910161393f565b6040516020818303038152906040528051906020012090506000610f5982611f76565b9050600060018288888860405160008152602001604052604051610f8094939291906139cf565b6020604051602081039080840390855afa158015610fa2573d6000803e3d6000fd5b5050604051601f1901519150610fe490506001600160a01b03821615801590610fdc57508b6001600160a01b0316826001600160a01b0316145b6101f86113c6565b6001600160a01b038b16600090815260066020526040902060018501905561100d8b8b8b61162d565b5050505050505050505050565b6060808861102961053b610db3565b61103461056161084c565b606061103e6113e4565b90506110486118bd565b611050610745565b6110fd57600060606110658d8d8d868b611f92565b9150915061107e611074612000565b83101560cc6113c6565b611090600061108b612000565b612007565b6110a38b61109c612000565b8403612007565b6110ad8184611e9b565b808a5167ffffffffffffffff811180156110c657600080fd5b506040519080825280602002602001820160405280156110f0578160200160208202803683370190505b5095509550505050610a6e565b6111078882611e08565b6000606061112f8d8d8d8d8d61111b610e8d565b611125578d611128565b60005b898e611b85565b915091506110a38b83612007565b6000611147610db3565b6001600160a01b0316826001600160a01b03161415611169575060001961073f565b6111738383612011565b905061073f565b60408051600280825260608083018452926020830190803683370190505090507f0000000000000000000000000000000000000000000000000000000000000000816000815181106111c857fe5b60200260200101906001600160a01b031690816001600160a01b0316815250507f00000000000000000000000000000000000000000000000000000000000000008160018151811061121657fe5b6001600160a01b039290921660209283029190910190910152604080516002808252606082810190935281602001602082028036833701905050905060008160008151811061126157fe5b60200260200101818152505061127d600b54600a546000611e73565b8160018151811061128a57fe5b60200260200101818152505061129e613072565b506040805160808101825283815260208082018490528251908101835260008082529282015260608101919091526112d4610db3565b6001600160a01b0316638bdb39136112ea61084c565b600e546040517fffffffff0000000000000000000000000000000000000000000000000000000060e085901b168152611336929130916001600160a01b03909116908790600401613887565b600060405180830381600087803b15801561135057600080fd5b505af1158015611364573d6000803e3d6000fd5b50505050505050565b806108d98161203c565b60006113848484846120b5565b506001901b60001901811b1992909216911b1790565b60006113aa8383111560016113c6565b50900390565b60008183106113bf57816107f2565b5090919050565b816108d9576108d9816120fc565b8181018281101561073f57600080fd5b604080516002808252606080830184529283929190602083019080368337019050509050670de0b6b3a7640000817f00000000000000000000000000000000000000000000000000000000000000008151811061143d57fe5b602002602001018181525050670de0b6b3a7640000817f00000000000000000000000000000000000000000000000000000000000000008151811061147e57fe5b602002602001018181525050670de0b6b3a7640000817f0000000000000000000000000000000000000000000000000000000000000000815181106114bf57fe5b6020908102919091010152905090565b60006107f28383612169565b60007f00000000000000000000000000000000000000000000000000000000000000006001600160a01b031684602001516001600160a01b0316141561152d5761152684848461219f565b90506107f2565b7f00000000000000000000000000000000000000000000000000000000000000006001600160a01b031684602001516001600160a01b03161415611576576115268484846125ac565b6107f26101356120fc565b60006107f28383612914565b60007f00000000000000000000000000000000000000000000000000000000000000006001600160a01b031684604001516001600160a01b031614156115d857611526848484612965565b7f00000000000000000000000000000000000000000000000000000000000000006001600160a01b031684604001516001600160a01b0316141561157657611526848484612ace565b60006107f28383612c17565b6001600160a01b0380841660008181526001602090815260408083209487168084529490915290819020849055517f8c5be1e5ebec7d5bd14f71427d1e84f3dd0314c0f7b2291e5b200ac8c7c3b9259061168890859061387e565b60405180910390a3505050565b600061169f6116d6565b42118061077e57505060075460ff161590565b7f000000000000000000000000000000000000000000000000000000000000000090565b7f000000000000000000000000000000000000000000000000000000000000000090565b6117116001600160a01b03841615156101986113c6565b6117286001600160a01b03831615156101996113c6565b611733838383611c02565b6001600160a01b03831660009081526020819052604090205461175990826101a0612c65565b6001600160a01b0380851660009081526020819052604080822093909355908416815220546117889082611949565b6001600160a01b0380841660008181526020819052604090819020939093559151908516907fddf252ad1be2c89b69c2b068fc378daa952ba7f163c4a11628f55a4df523b3ef9061168890859061387e565b60007f00000000000000000000000000000000000000000000000000000000000000007f00000000000000000000000000000000000000000000000000000000000000007f0000000000000000000000000000000000000000000000000000000000000000611847612c7b565b3060405160200161185c959493929190613973565b60405160208183030381529060405280519060200120905090565b60006118a66000357fffffffff0000000000000000000000000000000000000000000000000000000016610d17565b90506108496118b58233612c7f565b6101916113c6565b6108bd6118c8611695565b6101926113c6565b6118e56118db612d68565b82101560cb6113c6565b6118fa6118f0612d71565b82111560ca6113c6565b60085461190b908260c06040611377565b6008556040517fa9ba3ffe0b6c366b81232caab38605a0699ad5398d6cce76f91ee809e322dafc9061193e90839061387e565b60405180910390a150565b60008282016107f284821015836113c6565b801561197b5761197661196c6116b2565b42106101936113c6565b611990565b6119906119866116d6565b42106101a96113c6565b600780547fffffffffffffffffffffffffffffffffffffffffffffffffffffffffffffff00168215151790556040517f9e3a5e37224532dea67b89face185703738a228a6e8a23dee546960180d3be649061193e90839061385b565b60006119f661084c565b90506000611a02610db3565b6001600160a01b031663b05f8e4883866040518363ffffffff1660e01b8152600401611a2f9291906139b8565b60806040518083038186803b158015611a4757600080fd5b505afa158015611a5b573d6000803e3d6000fd5b505050506040513d601f19601f82011682018060405250810190611a7f91906135cf565b6040517f18e736d40000000000000000000000000000000000000000000000000000000081529094506001600160a01b03851693506318e736d49250611acc91508590879060040161399f565b600060405180830381600087803b158015611ae657600080fd5b505af1158015611afa573d6000803e3d6000fd5b5050505050505050565b600780547fffffffffffffffffffffffffffffffffffffffffffffffffffffffffffff00ff16610100831515021790556040517feff3d4d215b42bf0960be9c6d5e05c22cba4df6627a3a523e2acee733b5854c89061193e90839061385b565b6001901b6000190191901c1690565b600290565b6108d981831460676113c6565b60006060611b946101366120fc565b9850989650505050505050565b60005b611bac611b73565b811015611c0257611be3838281518110611bc257fe5b6020026020010151838381518110611bd657fe5b6020026020010151612914565b838281518110611bef57fe5b6020908102919091010152600101611ba4565b505050565b333014611cf6576000306001600160a01b0316600036604051611c2b92919061378a565b6000604051808303816000865af19150503d8060008114611c68576040519150601f19603f3d011682016040523d82523d6000602084013e611c6d565b606091505b505090508060008114611c7c57fe5b60046000803e6000517fffffffff00000000000000000000000000000000000000000000000000000000167f43adbafb000000000000000000000000000000000000000000000000000000008114611cd8573d6000803e3d6000fd5b506020600460003e604060205260243d03602460403e601c3d016000f35b6060611d006113e4565b9050611d0c8782611e08565b60006060611d248c8c8c8c8c8c898d8d63ffffffff16565b91509150611d3681848663ffffffff16565b8051601f1982018390526343adbafb7fffffffffffffffffffffffffffffffffffffffffffffffffffffffffffffffc08301526020027fffffffffffffffffffffffffffffffffffffffffffffffffffffffffffffffdc82016044820181fd5b600080825111801561073f575060ff801682806020019051810190611dbb919061360f565b60ff161492915050565b6007546108bd90610100900460ff166101b66113c6565b600060606000611deb84612d7d565b90506060611dfa878784612d93565b919791965090945050505050565b60005b611e13611b73565b811015611c0257611e4a838281518110611e2957fe5b6020026020010151838381518110611e3d57fe5b6020026020010151612169565b838281518110611e5657fe5b6020908102919091010152600101611e0b565b6108d98282612e42565b600081611e8957611e848484612efe565b611e93565b611e938484612f1e565b949350505050565b60005b611ea6611b73565b811015611c0257611edd838281518110611ebc57fe5b6020026020010151838381518110611ed057fe5b6020026020010151612c17565b838281518110611ee957fe5b6020908102919091010152600101611e9e565b6000611f06610db3565b6001600160a01b031663aaabadc56040518163ffffffff1660e01b815260040160206040518083038186803b158015611f3e57600080fd5b505afa158015611f52573d6000803e3d6000fd5b505050506040513d601f19601f8201168201806040525081019061077e91906133bb565b6000611f806117da565b82604051602001610d4c92919061379a565b60006060611f9e6118bd565b600e54611fbb906001600160a01b038881169116146101aa6113c6565b611fd26001600160a01b03861630146101aa6113c6565b6040805160028082526060808301845292602083019080368337019050506000999098509650505050505050565b620f424090565b6108d98282612f51565b6001600160a01b03918216600090815260016020908152604080832093909416825291909152205490565b60028151101561204b57610849565b60008160008151811061205a57fe5b602002602001015190506000600190505b8251811015611c0257600083828151811061208257fe5b602002602001015190506120ab816001600160a01b0316846001600160a01b03161060656113c6565b915060010161206b565b6120c4610100831060646113c6565b6120ed600182101580156120e657506120e260ff84610100036113b0565b8211155b60646113c6565b611c0283821c156101b46113c6565b7f08c379a0000000000000000000000000000000000000000000000000000000006000908152602060045260076024526642414c23000030600a808404818106603090810160081b95839006959095019082900491820690940160101b939093010160c81b604452606490fd5b600082820261218d84158061218657508385838161218357fe5b04145b60036113c6565b670de0b6b3a764000090049392505050565b60006121e57f00000000000000000000000000000000000000000000000000000000000000006001600160a01b031685604001516001600160a01b0316146101356113c6565b7f00000000000000000000000000000000000000000000000000000000000000006001600160a01b031684604001516001600160a01b031614156107f2576000612266847f00000000000000000000000000000000000000000000000000000000000000008151811061225457fe5b60200260200101518660600151611949565b905060006122a982867f00000000000000000000000000000000000000000000000000000000000000008151811061229a57fe5b60200260200101516000611e73565b905060006122ea867f0000000000000000000000000000000000000000000000000000000000000000815181106122dc57fe5b60200260200101518361139a565b905084602001516122fd84836000611e73565b1015801561231a5750846040015161231784836000611e73565b11155b156125a057600e546001600160a01b0316632b56390b61233861084c565b7f00000000000000000000000000000000000000000000000000000000000000007f00000000000000000000000000000000000000000000000000000000000000007f00000000000000000000000000000000000000000000000000000000000000006001600160a01b03166306fdde036040518163ffffffff1660e01b815260040160006040518083038186803b1580156123d357600080fd5b505afa1580156123e7573d6000803e3d6000fd5b505050506040513d6000823e601f3d908101601f1916820160405261240f9190810190613425565b8c606001518d60c001518960006040518963ffffffff1660e01b815260040161243f9897969594939291906138e2565b600060405180830381600087803b15801561245957600080fd5b505af115801561246d573d6000803e3d6000fd5b505050507f00000000000000000000000000000000000000000000000000000000000000006001600160a01b03167fcf6f98f0568a50d4e3d60b183f01e307f5011e8140f842a5a855df40d80918bb7f00000000000000000000000000000000000000000000000000000000000000007f00000000000000000000000000000000000000000000000000000000000000006001600160a01b03166306fdde036040518163ffffffff1660e01b815260040160006040518083038186803b15801561253657600080fd5b505afa15801561254a573d6000803e3d6000fd5b505050506040513d6000823e601f3d908101601f191682016040526125729190810190613425565b8a606001518b60c001518760405161258e9594939291906137e4565b60405180910390a25091506107f29050565b600093505050506107f2565b60006125f27f00000000000000000000000000000000000000000000000000000000000000006001600160a01b031685604001516001600160a01b0316146101356113c6565b7f00000000000000000000000000000000000000000000000000000000000000006001600160a01b031684604001516001600160a01b031614156107f2576000612661847f00000000000000000000000000000000000000000000000000000000000000008151811061225457fe5b9050600061269582867f00000000000000000000000000000000000000000000000000000000000000008151811061229a57fe5b905060006126c8867f0000000000000000000000000000000000000000000000000000000000000000815181106122dc57fe5b905084602001516126db82856000611e73565b101580156126f8575084604001516126f582856000611e73565b11155b156125a057600e546001600160a01b0316632b56390b61271661084c565b7f00000000000000000000000000000000000000000000000000000000000000007f00000000000000000000000000000000000000000000000000000000000000007f00000000000000000000000000000000000000000000000000000000000000006001600160a01b03166306fdde036040518163ffffffff1660e01b815260040160006040518083038186803b1580156127b157600080fd5b505afa1580156127c5573d6000803e3d6000fd5b505050506040513d6000823e601f3d908101601f191682016040526127ed9190810190613425565b8c606001518d60c001518960016040518963ffffffff1660e01b815260040161281d9897969594939291906138e2565b600060405180830381600087803b15801561283757600080fd5b505af115801561284b573d6000803e3d6000fd5b505050507f00000000000000000000000000000000000000000000000000000000000000006001600160a01b03167fcf6f98f0568a50d4e3d60b183f01e307f5011e8140f842a5a855df40d80918bb7f00000000000000000000000000000000000000000000000000000000000000007f00000000000000000000000000000000000000000000000000000000000000006001600160a01b03166306fdde036040518163ffffffff1660e01b815260040160006040518083038186803b15801561253657600080fd5b600061292382151560046113c6565b826129305750600061073f565b670de0b6b3a7640000838102906129539085838161294a57fe5b041460056113c6565b82818161295c57fe5b0491505061073f565b60006129ab7f00000000000000000000000000000000000000000000000000000000000000006001600160a01b031685602001516001600160a01b0316146101356113c6565b7f00000000000000000000000000000000000000000000000000000000000000006001600160a01b031684602001516001600160a01b031614156107f2576000612a2c847f000000000000000000000000000000000000000000000000000000000000000081518110612a1a57fe5b6020026020010151866060015161139a565b90506000612a6082867f00000000000000000000000000000000000000000000000000000000000000008151811061229a57fe5b90506000612aa1867f000000000000000000000000000000000000000000000000000000000000000081518110612a9357fe5b602002602001015183611949565b90508460200151612ab484836000611e73565b101580156126f8575084604001516126f584836000611e73565b6000612b147f00000000000000000000000000000000000000000000000000000000000000006001600160a01b031685602001516001600160a01b0316146101356113c6565b7f00000000000000000000000000000000000000000000000000000000000000006001600160a01b031684602001516001600160a01b031614156107f2576000612b83847f000000000000000000000000000000000000000000000000000000000000000081518110612a1a57fe5b90506000612bb782867f00000000000000000000000000000000000000000000000000000000000000008151811061229a57fe5b90506000612bea867f000000000000000000000000000000000000000000000000000000000000000081518110612a9357fe5b90508460200151612bfd82856000611e73565b1015801561231a5750846040015161231782856000611e73565b6000612c2682151560046113c6565b82612c335750600061073f565b670de0b6b3a764000083810290612c4d9085838161294a57fe5b826001820381612c5957fe5b0460010191505061073f565b6000612c7484841115836113c6565b5050900390565b4690565b600073ba1ba1ba1ba1ba1ba1ba1ba1ba1ba1ba1ba1ba1b612c9e610d8f565b6001600160a01b031614158015612cb95750612cb983612fdf565b15612ce157612cc6610d8f565b6001600160a01b0316336001600160a01b031614905061073f565b612ce9611efc565b6001600160a01b0316639be2a8848484306040518463ffffffff1660e01b8152600401612d18939291906138c3565b60206040518083038186803b158015612d3057600080fd5b505afa158015612d44573d6000803e3d6000fd5b505050506040513d601f19601f8201168201806040525081019061117391906132b8565b64e8d4a5100090565b67016345785d8a000090565b6000818060200190518101906107f2919061362b565b60606000612da18385612914565b9050845167ffffffffffffffff81118015612dbb57600080fd5b50604051908082528060200260200182016040528015612de5578160200160208202803683370190505b50915060005b8551811015612e3957612e1a82878381518110612e0457fe5b602002602001015161216990919063ffffffff16565b838281518110612e2657fe5b6020908102919091010152600101612deb565b50509392505050565b612e596001600160a01b038316151561019b6113c6565b612e6582600083611c02565b6001600160a01b038216600090815260208190526040902054612e8b90826101b2612c65565b6001600160a01b038316600090815260208190526040902055600254612eb19082613043565b6002556040516000906001600160a01b038416907fddf252ad1be2c89b69c2b068fc378daa952ba7f163c4a11628f55a4df523b3ef90612ef290859061387e565b60405180910390a35050565b6000612f0d82151560046113c6565b818381612f1657fe5b049392505050565b6000612f2d82151560046113c6565b82612f3a5750600061073f565b816001840381612f4657fe5b04600101905061073f565b612f5d60008383611c02565b600254612f6a9082611949565b6002556001600160a01b038216600090815260208190526040902054612f909082611949565b6001600160a01b0383166000818152602081905260408082209390935591519091907fddf252ad1be2c89b69c2b068fc378daa952ba7f163c4a11628f55a4df523b3ef90612ef290859061387e565b600061300a7f38e9922e00000000000000000000000000000000000000000000000000000000610d17565b82148061073f575061303b7f50dd6ed900000000000000000000000000000000000000000000000000000000610d17565b909114919050565b60006107f283836001612c65565b60405180606001604052806000815260200160008152602001600081525090565b60405180608001604052806060815260200160608152602001606081526020016000151581525090565b803561073f81613ab0565b600082601f8301126130b7578081fd5b813567ffffffffffffffff8111156130cd578182fd5b60208082026130dd828201613a35565b838152935081840185830182870184018810156130f957600080fd5b600092505b8483101561311c5780358252600192909201919083019083016130fe565b505050505092915050565b600082601f830112613137578081fd5b813561314a61314582613a5c565b613a35565b915080825283602082850101111561316157600080fd5b8060208401602084013760009082016020015292915050565b80356002811061073f57600080fd5b60006020828403121561319a578081fd5b81356107f281613ab0565b600080604083850312156131b7578081fd5b82356131c281613ab0565b915060208301356131d281613ab0565b809150509250929050565b6000806000606084860312156131f1578081fd5b83356131fc81613ab0565b9250602084013561320c81613ab0565b929592945050506040919091013590565b600080600080600080600060e0888a031215613237578283fd5b873561324281613ab0565b9650602088013561325281613ab0565b95506040880135945060608801359350608088013561327081613ac5565b9699959850939692959460a0840135945060c09093013592915050565b6000806040838503121561329f578182fd5b82356132aa81613ab0565b946020939093013593505050565b6000602082840312156132c9578081fd5b815180151581146107f2578182fd5b600080600080600080600060e0888a0312156132f2578081fd5b87359650602088013561330481613ab0565b9550604088013561331481613ab0565b9450606088013567ffffffffffffffff80821115613330578283fd5b61333c8b838c016130a7565b955060808a0135945060a08a0135935060c08a013591508082111561335f578283fd5b5061336c8a828b01613127565b91505092959891949750929550565b60006020828403121561338c578081fd5b81357fffffffff00000000000000000000000000000000000000000000000000000000811681146107f2578182fd5b6000602082840312156133cc578081fd5b81516107f281613ab0565b600080604083850312156133e9578182fd5b82356133f481613ab0565b9150602083013567ffffffffffffffff81111561340f578182fd5b61341b85828601613127565b9150509250929050565b600060208284031215613436578081fd5b815167ffffffffffffffff81111561344c578182fd5b8201601f8101841361345c578182fd5b805161346a61314582613a5c565b81815285602083850101111561347e578384fd5b61348f826020830160208601613a80565b95945050505050565b600080600080608085870312156134ad578182fd5b843567ffffffffffffffff808211156134c4578384fd5b818701915061012080838a0312156134da578485fd5b6134e381613a35565b90506134ef898461317a565b81526134fe896020850161309c565b6020820152613510896040850161309c565b6040820152606083013560608201526080830135608082015260a083013560a08201526135408960c0850161309c565b60c08201526135528960e0850161309c565b60e0820152610100808401358381111561356a578687fd5b6135768b828701613127565b828401525050809650506020870135915080821115613593578384fd5b506135a0878288016130a7565b949794965050505060408301359260600135919050565b6000602082840312156135c8578081fd5b5035919050565b600080600080608085870312156135e4578182fd5b845193506020850151925060408501519150606085015161360481613ab0565b939692955090935050565b600060208284031215613620578081fd5b81516107f281613ac5565b6000806040838503121561363d578182fd5b825161364881613ac5565b6020939093015192949293505050565b6000815180845260208085019450808401835b838110156136875781518752958201959082019060010161366b565b509495945050505050565b15159052565b600081518084526136b0816020860160208601613a80565b601f01601f19169290920160200192915050565b8051608080845281519084018190526000916020919082019060a0860190845b818110156137095783516001600160a01b0316835292840192918401916001016136e4565b5050828501519150858103838701526137228183613658565b925050506040830151848203604086015261373d8282613698565b91505060608301516137526060860182613692565b509392505050565b9182527fffffffff0000000000000000000000000000000000000000000000000000000016602082015260240190565b6000828483379101908152919050565b7f190100000000000000000000000000000000000000000000000000000000000081526002810192909252602282015260420190565b6001600160a01b0391909116815260200190565b60006001600160a01b03808816835260a0602084015261380760a0840188613698565b6040840196909652939093166060820152608001525092915050565b6000602082526107f26020830184613658565b6000604082526138496040830185613658565b828103602084015261348f8185613658565b901515815260200190565b92151583526020830191909152604082015260600190565b90815260200190565b60008582526001600160a01b038086166020840152808516604084015250608060608301526138b960808301846136c4565b9695505050505050565b9283526001600160a01b03918216602084015216604082015260600190565b60006101008a83526001600160a01b03808b166020850152808a1660408501528160608501526139148285018a613698565b60808501989098529590951660a08301525060c0810192909252151560e09091015250949350505050565b9586526001600160a01b0394851660208701529290931660408501526060840152608083019190915260a082015260c00190565b9485526020850193909352604084019190915260608301526001600160a01b0316608082015260a00190565b600083825260406020830152611e936040830184613698565b9182526001600160a01b0316602082015260400190565b93845260ff9290921660208401526040830152606082015260800190565b6000602082526107f26020830184613698565b600083825260406020830152611e936040830184613658565b918252602082015260400190565b60ff91909116815260200190565b60405181810167ffffffffffffffff81118282101715613a5457600080fd5b604052919050565b600067ffffffffffffffff821115613a72578081fd5b50601f01601f191660200190565b60005b83811015613a9b578181015183820152602001613a83565b83811115613aaa576000848401525b50505050565b6001600160a01b038116811461084957600080fd5b60ff8116811461084957600080fdfea264697066735822122042bfb2b6b616a88716ca3da294e7e081c138a00e34273fbaab30757dc9099adb64736f6c63430007010033",
  "linkReferences": {},
  "deployedLinkReferences": {}
}