{
  "_format": "hh-sol-artifact-1",
  "contractName": "SecondaryIssuePool",
  "sourceName": "contracts/SecondaryIssuePool.sol",
  "abi": [
    {
      "inputs": [
        {
          "internalType": "contract IVault",
          "name": "vault",
          "type": "address"
        },
        {
          "internalType": "string",
          "name": "name",
          "type": "string"
        },
        {
          "internalType": "string",
          "name": "symbol",
          "type": "string"
        },
        {
          "internalType": "address",
          "name": "security",
          "type": "address"
        },
        {
          "internalType": "address",
          "name": "currency",
          "type": "address"
        },
        {
          "internalType": "uint256",
          "name": "maxSecurityOffered",
          "type": "uint256"
        },
        {
          "internalType": "uint256",
          "name": "tradeFeePercentage",
          "type": "uint256"
        },
        {
          "internalType": "uint256",
          "name": "pauseWindowDuration",
          "type": "uint256"
        },
        {
          "internalType": "uint256",
          "name": "bufferPeriodDuration",
          "type": "uint256"
        },
        {
          "internalType": "address",
          "name": "owner",
          "type": "address"
        }
      ],
      "stateMutability": "nonpayable",
      "type": "constructor"
    },
    {
      "anonymous": false,
      "inputs": [
        {
          "indexed": true,
          "internalType": "address",
          "name": "owner",
          "type": "address"
        },
        {
          "indexed": true,
          "internalType": "address",
          "name": "spender",
          "type": "address"
        },
        {
          "indexed": false,
          "internalType": "uint256",
          "name": "value",
          "type": "uint256"
        }
      ],
      "name": "Approval",
      "type": "event"
    },
    {
      "anonymous": false,
      "inputs": [
        {
          "indexed": true,
          "internalType": "address",
          "name": "security",
          "type": "address"
        },
        {
          "indexed": false,
          "internalType": "uint256",
          "name": "secondaryOffer",
          "type": "uint256"
        }
      ],
      "name": "Offer",
      "type": "event"
    },
    {
      "anonymous": false,
      "inputs": [
        {
          "indexed": false,
          "internalType": "bool",
          "name": "paused",
          "type": "bool"
        }
      ],
      "name": "PausedStateChanged",
      "type": "event"
    },
    {
      "anonymous": false,
      "inputs": [
        {
          "indexed": false,
          "internalType": "bool",
          "name": "enabled",
          "type": "bool"
        }
      ],
      "name": "RecoveryModeStateChanged",
      "type": "event"
    },
    {
      "anonymous": false,
      "inputs": [
        {
          "indexed": false,
          "internalType": "uint256",
          "name": "swapFeePercentage",
          "type": "uint256"
        }
      ],
      "name": "SwapFeePercentageChanged",
      "type": "event"
    },
    {
      "anonymous": false,
      "inputs": [
        {
          "indexed": true,
          "internalType": "address",
          "name": "from",
          "type": "address"
        },
        {
          "indexed": true,
          "internalType": "address",
          "name": "to",
          "type": "address"
        },
        {
          "indexed": false,
          "internalType": "uint256",
          "name": "value",
          "type": "uint256"
        }
      ],
      "name": "Transfer",
      "type": "event"
    },
    {
      "anonymous": false,
      "inputs": [
        {
          "indexed": true,
          "internalType": "address",
          "name": "security",
          "type": "address"
        },
        {
          "indexed": false,
          "internalType": "address",
          "name": "party",
          "type": "address"
        },
        {
          "indexed": false,
          "internalType": "address",
          "name": "counterparty",
          "type": "address"
        },
        {
          "indexed": false,
          "internalType": "uint256",
          "name": "price",
          "type": "uint256"
        },
        {
          "indexed": false,
          "internalType": "uint256",
          "name": "askprice",
          "type": "uint256"
        },
        {
          "indexed": false,
          "internalType": "address",
          "name": "currency",
          "type": "address"
        },
        {
          "indexed": false,
          "internalType": "uint256",
          "name": "amount",
          "type": "uint256"
        },
        {
          "indexed": false,
          "internalType": "bytes32",
          "name": "status",
          "type": "bytes32"
        },
        {
          "indexed": false,
          "internalType": "uint256",
          "name": "executionDate",
          "type": "uint256"
        }
      ],
      "name": "tradeReport",
      "type": "event"
    },
    {
      "inputs": [],
      "name": "DOMAIN_SEPARATOR",
      "outputs": [
        {
          "internalType": "bytes32",
          "name": "",
          "type": "bytes32"
        }
      ],
      "stateMutability": "view",
      "type": "function"
    },
    {
      "inputs": [
        {
          "internalType": "address",
          "name": "owner",
          "type": "address"
        },
        {
          "internalType": "address",
          "name": "spender",
          "type": "address"
        }
      ],
      "name": "allowance",
      "outputs": [
        {
          "internalType": "uint256",
          "name": "",
          "type": "uint256"
        }
      ],
      "stateMutability": "view",
      "type": "function"
    },
    {
      "inputs": [
        {
          "internalType": "address",
          "name": "spender",
          "type": "address"
        },
        {
          "internalType": "uint256",
          "name": "amount",
          "type": "uint256"
        }
      ],
      "name": "approve",
      "outputs": [
        {
          "internalType": "bool",
          "name": "",
          "type": "bool"
        }
      ],
      "stateMutability": "nonpayable",
      "type": "function"
    },
    {
      "inputs": [
        {
          "internalType": "address",
          "name": "account",
          "type": "address"
        }
      ],
      "name": "balanceOf",
      "outputs": [
        {
          "internalType": "uint256",
          "name": "",
          "type": "uint256"
        }
      ],
      "stateMutability": "view",
      "type": "function"
    },
    {
      "inputs": [
        {
          "internalType": "bytes32",
          "name": "ref",
          "type": "bytes32"
        }
      ],
      "name": "cancelOrder",
      "outputs": [],
      "stateMutability": "nonpayable",
      "type": "function"
    },
    {
      "inputs": [],
      "name": "decimals",
      "outputs": [
        {
          "internalType": "uint8",
          "name": "",
          "type": "uint8"
        }
      ],
      "stateMutability": "view",
      "type": "function"
    },
    {
      "inputs": [
        {
          "internalType": "address",
          "name": "spender",
          "type": "address"
        },
        {
          "internalType": "uint256",
          "name": "amount",
          "type": "uint256"
        }
      ],
      "name": "decreaseAllowance",
      "outputs": [
        {
          "internalType": "bool",
          "name": "",
          "type": "bool"
        }
      ],
      "stateMutability": "nonpayable",
      "type": "function"
    },
    {
      "inputs": [],
      "name": "disableRecoveryMode",
      "outputs": [],
      "stateMutability": "nonpayable",
      "type": "function"
    },
    {
      "inputs": [
        {
          "internalType": "bytes32",
          "name": "ref",
          "type": "bytes32"
        },
        {
          "internalType": "uint256",
          "name": "_price",
          "type": "uint256"
        },
        {
          "internalType": "uint256",
          "name": "_qty",
          "type": "uint256"
        }
      ],
      "name": "editOrder",
      "outputs": [],
      "stateMutability": "nonpayable",
      "type": "function"
    },
    {
      "inputs": [],
      "name": "enableRecoveryMode",
      "outputs": [],
      "stateMutability": "nonpayable",
      "type": "function"
    },
    {
      "inputs": [],
      "name": "exit",
      "outputs": [],
      "stateMutability": "nonpayable",
      "type": "function"
    },
    {
      "inputs": [
        {
          "internalType": "bytes4",
          "name": "selector",
          "type": "bytes4"
        }
      ],
      "name": "getActionId",
      "outputs": [
        {
          "internalType": "bytes32",
          "name": "",
          "type": "bytes32"
        }
      ],
      "stateMutability": "view",
      "type": "function"
    },
    {
      "inputs": [],
      "name": "getAuthorizer",
      "outputs": [
        {
          "internalType": "contract IAuthorizer",
          "name": "",
          "type": "address"
        }
      ],
      "stateMutability": "view",
      "type": "function"
    },
    {
      "inputs": [],
      "name": "getCurrency",
      "outputs": [
        {
          "internalType": "address",
          "name": "",
          "type": "address"
        }
      ],
      "stateMutability": "view",
      "type": "function"
    },
    {
      "inputs": [],
      "name": "getOrderRef",
      "outputs": [
        {
          "internalType": "bytes32[]",
          "name": "",
          "type": "bytes32[]"
        }
      ],
      "stateMutability": "view",
      "type": "function"
    },
    {
      "inputs": [],
      "name": "getOwner",
      "outputs": [
        {
          "internalType": "address",
          "name": "",
          "type": "address"
        }
      ],
      "stateMutability": "view",
      "type": "function"
    },
    {
      "inputs": [],
      "name": "getPausedState",
      "outputs": [
        {
          "internalType": "bool",
          "name": "paused",
          "type": "bool"
        },
        {
          "internalType": "uint256",
          "name": "pauseWindowEndTime",
          "type": "uint256"
        },
        {
          "internalType": "uint256",
          "name": "bufferPeriodEndTime",
          "type": "uint256"
        }
      ],
      "stateMutability": "view",
      "type": "function"
    },
    {
      "inputs": [],
      "name": "getPoolId",
      "outputs": [
        {
          "internalType": "bytes32",
          "name": "",
          "type": "bytes32"
        }
      ],
      "stateMutability": "view",
      "type": "function"
    },
    {
      "inputs": [],
      "name": "getProtocolFeesCollector",
      "outputs": [
        {
          "internalType": "contract IProtocolFeesCollector",
          "name": "",
          "type": "address"
        }
      ],
      "stateMutability": "view",
      "type": "function"
    },
    {
      "inputs": [],
      "name": "getScalingFactors",
      "outputs": [
        {
          "internalType": "uint256[]",
          "name": "",
          "type": "uint256[]"
        }
      ],
      "stateMutability": "view",
      "type": "function"
    },
    {
      "inputs": [],
      "name": "getSecurity",
      "outputs": [
        {
          "internalType": "address",
          "name": "",
          "type": "address"
        }
      ],
      "stateMutability": "view",
      "type": "function"
    },
    {
      "inputs": [],
      "name": "getSwapFeePercentage",
      "outputs": [
        {
          "internalType": "uint256",
          "name": "",
          "type": "uint256"
        }
      ],
      "stateMutability": "view",
      "type": "function"
    },
    {
      "inputs": [
        {
          "internalType": "bytes32",
          "name": "ref",
          "type": "bytes32"
        }
      ],
      "name": "getTrade",
      "outputs": [
        {
          "internalType": "uint256",
          "name": "b",
          "type": "uint256"
        },
        {
          "internalType": "uint256",
          "name": "a",
          "type": "uint256"
        }
      ],
      "stateMutability": "view",
      "type": "function"
    },
    {
      "inputs": [],
      "name": "getVault",
      "outputs": [
        {
          "internalType": "contract IVault",
          "name": "",
          "type": "address"
        }
      ],
      "stateMutability": "view",
      "type": "function"
    },
    {
      "inputs": [],
      "name": "inRecoveryMode",
      "outputs": [
        {
          "internalType": "bool",
          "name": "",
          "type": "bool"
        }
      ],
      "stateMutability": "view",
      "type": "function"
    },
    {
      "inputs": [
        {
          "internalType": "address",
          "name": "spender",
          "type": "address"
        },
        {
          "internalType": "uint256",
          "name": "addedValue",
          "type": "uint256"
        }
      ],
      "name": "increaseAllowance",
      "outputs": [
        {
          "internalType": "bool",
          "name": "",
          "type": "bool"
        }
      ],
      "stateMutability": "nonpayable",
      "type": "function"
    },
    {
      "inputs": [],
      "name": "initialize",
      "outputs": [],
      "stateMutability": "nonpayable",
      "type": "function"
    },
    {
      "inputs": [],
      "name": "name",
      "outputs": [
        {
          "internalType": "string",
          "name": "",
          "type": "string"
        }
      ],
      "stateMutability": "view",
      "type": "function"
    },
    {
      "inputs": [
        {
          "internalType": "address",
          "name": "owner",
          "type": "address"
        }
      ],
      "name": "nonces",
      "outputs": [
        {
          "internalType": "uint256",
          "name": "",
          "type": "uint256"
        }
      ],
      "stateMutability": "view",
      "type": "function"
    },
    {
      "inputs": [
        {
          "internalType": "bytes32",
          "name": "poolId",
          "type": "bytes32"
        },
        {
          "internalType": "address",
          "name": "sender",
          "type": "address"
        },
        {
          "internalType": "address",
          "name": "recipient",
          "type": "address"
        },
        {
          "internalType": "uint256[]",
          "name": "balances",
          "type": "uint256[]"
        },
        {
          "internalType": "uint256",
          "name": "lastChangeBlock",
          "type": "uint256"
        },
        {
          "internalType": "uint256",
          "name": "protocolSwapFeePercentage",
          "type": "uint256"
        },
        {
          "internalType": "bytes",
          "name": "userData",
          "type": "bytes"
        }
      ],
      "name": "onExitPool",
      "outputs": [
        {
          "internalType": "uint256[]",
          "name": "",
          "type": "uint256[]"
        },
        {
          "internalType": "uint256[]",
          "name": "",
          "type": "uint256[]"
        }
      ],
      "stateMutability": "nonpayable",
      "type": "function"
    },
    {
      "inputs": [
        {
          "internalType": "bytes32",
          "name": "poolId",
          "type": "bytes32"
        },
        {
          "internalType": "address",
          "name": "sender",
          "type": "address"
        },
        {
          "internalType": "address",
          "name": "recipient",
          "type": "address"
        },
        {
          "internalType": "uint256[]",
          "name": "balances",
          "type": "uint256[]"
        },
        {
          "internalType": "uint256",
          "name": "lastChangeBlock",
          "type": "uint256"
        },
        {
          "internalType": "uint256",
          "name": "protocolSwapFeePercentage",
          "type": "uint256"
        },
        {
          "internalType": "bytes",
          "name": "userData",
          "type": "bytes"
        }
      ],
      "name": "onJoinPool",
      "outputs": [
        {
          "internalType": "uint256[]",
          "name": "",
          "type": "uint256[]"
        },
        {
          "internalType": "uint256[]",
          "name": "",
          "type": "uint256[]"
        }
      ],
      "stateMutability": "nonpayable",
      "type": "function"
    },
    {
      "inputs": [
        {
          "components": [
            {
              "internalType": "enum IVault.SwapKind",
              "name": "kind",
              "type": "uint8"
            },
            {
              "internalType": "contract IERC20",
              "name": "tokenIn",
              "type": "address"
            },
            {
              "internalType": "contract IERC20",
              "name": "tokenOut",
              "type": "address"
            },
            {
              "internalType": "uint256",
              "name": "amount",
              "type": "uint256"
            },
            {
              "internalType": "bytes32",
              "name": "poolId",
              "type": "bytes32"
            },
            {
              "internalType": "uint256",
              "name": "lastChangeBlock",
              "type": "uint256"
            },
            {
              "internalType": "address",
              "name": "from",
              "type": "address"
            },
            {
              "internalType": "address",
              "name": "to",
              "type": "address"
            },
            {
              "internalType": "bytes",
              "name": "userData",
              "type": "bytes"
            }
          ],
          "internalType": "struct IPoolSwapStructs.SwapRequest",
          "name": "request",
          "type": "tuple"
        },
        {
          "internalType": "uint256[]",
          "name": "balances",
          "type": "uint256[]"
        },
        {
          "internalType": "uint256",
          "name": "indexIn",
          "type": "uint256"
        },
        {
          "internalType": "uint256",
          "name": "indexOut",
          "type": "uint256"
        }
      ],
      "name": "onSwap",
      "outputs": [
        {
          "internalType": "uint256",
          "name": "",
          "type": "uint256"
        }
      ],
      "stateMutability": "nonpayable",
      "type": "function"
    },
    {
      "inputs": [
        {
          "internalType": "bytes32",
          "name": "partyRef",
          "type": "bytes32"
        },
        {
          "internalType": "bytes32",
          "name": "counterpartyRef",
          "type": "bytes32"
        }
      ],
      "name": "orderFilled",
      "outputs": [],
      "stateMutability": "nonpayable",
      "type": "function"
    },
    {
      "inputs": [],
      "name": "pause",
      "outputs": [],
      "stateMutability": "nonpayable",
      "type": "function"
    },
    {
      "inputs": [
        {
          "internalType": "address",
          "name": "owner",
          "type": "address"
        },
        {
          "internalType": "address",
          "name": "spender",
          "type": "address"
        },
        {
          "internalType": "uint256",
          "name": "value",
          "type": "uint256"
        },
        {
          "internalType": "uint256",
          "name": "deadline",
          "type": "uint256"
        },
        {
          "internalType": "uint8",
          "name": "v",
          "type": "uint8"
        },
        {
          "internalType": "bytes32",
          "name": "r",
          "type": "bytes32"
        },
        {
          "internalType": "bytes32",
          "name": "s",
          "type": "bytes32"
        }
      ],
      "name": "permit",
      "outputs": [],
      "stateMutability": "nonpayable",
      "type": "function"
    },
    {
      "inputs": [
        {
          "internalType": "bytes32",
          "name": "poolId",
          "type": "bytes32"
        },
        {
          "internalType": "address",
          "name": "sender",
          "type": "address"
        },
        {
          "internalType": "address",
          "name": "recipient",
          "type": "address"
        },
        {
          "internalType": "uint256[]",
          "name": "balances",
          "type": "uint256[]"
        },
        {
          "internalType": "uint256",
          "name": "lastChangeBlock",
          "type": "uint256"
        },
        {
          "internalType": "uint256",
          "name": "protocolSwapFeePercentage",
          "type": "uint256"
        },
        {
          "internalType": "bytes",
          "name": "userData",
          "type": "bytes"
        }
      ],
      "name": "queryExit",
      "outputs": [
        {
          "internalType": "uint256",
          "name": "bptIn",
          "type": "uint256"
        },
        {
          "internalType": "uint256[]",
          "name": "amountsOut",
          "type": "uint256[]"
        }
      ],
      "stateMutability": "view",
      "type": "function"
    },
    {
      "inputs": [
        {
          "internalType": "bytes32",
          "name": "poolId",
          "type": "bytes32"
        },
        {
          "internalType": "address",
          "name": "sender",
          "type": "address"
        },
        {
          "internalType": "address",
          "name": "recipient",
          "type": "address"
        },
        {
          "internalType": "uint256[]",
          "name": "balances",
          "type": "uint256[]"
        },
        {
          "internalType": "uint256",
          "name": "lastChangeBlock",
          "type": "uint256"
        },
        {
          "internalType": "uint256",
          "name": "protocolSwapFeePercentage",
          "type": "uint256"
        },
        {
          "internalType": "bytes",
          "name": "userData",
          "type": "bytes"
        }
      ],
      "name": "queryJoin",
      "outputs": [
        {
          "internalType": "uint256",
          "name": "bptOut",
          "type": "uint256"
        },
        {
          "internalType": "uint256[]",
          "name": "amountsIn",
          "type": "uint256[]"
        }
      ],
      "stateMutability": "view",
      "type": "function"
    },
    {
      "inputs": [
        {
          "internalType": "bytes32",
          "name": "_orderRef",
          "type": "bytes32"
        },
        {
          "internalType": "uint256",
          "name": "_qty",
          "type": "uint256"
        },
        {
          "internalType": "bytes32",
          "name": "_order",
          "type": "bytes32"
        }
      ],
      "name": "revertTrade",
      "outputs": [],
      "stateMutability": "nonpayable",
      "type": "function"
    },
    {
      "inputs": [
        {
          "internalType": "contract IERC20",
          "name": "token",
          "type": "address"
        },
        {
          "internalType": "bytes",
          "name": "poolConfig",
          "type": "bytes"
        }
      ],
      "name": "setAssetManagerPoolConfig",
      "outputs": [],
      "stateMutability": "nonpayable",
      "type": "function"
    },
    {
      "inputs": [
        {
          "internalType": "uint256",
          "name": "swapFeePercentage",
          "type": "uint256"
        }
      ],
      "name": "setSwapFeePercentage",
      "outputs": [],
      "stateMutability": "nonpayable",
      "type": "function"
    },
    {
      "inputs": [],
      "name": "symbol",
      "outputs": [
        {
          "internalType": "string",
          "name": "",
          "type": "string"
        }
      ],
      "stateMutability": "view",
      "type": "function"
    },
    {
      "inputs": [],
      "name": "totalSupply",
      "outputs": [
        {
          "internalType": "uint256",
          "name": "",
          "type": "uint256"
        }
      ],
      "stateMutability": "view",
      "type": "function"
    },
    {
      "inputs": [
        {
          "internalType": "bytes32",
          "name": "tradeRef",
          "type": "bytes32"
        },
        {
          "internalType": "bytes32",
          "name": "partyRef",
          "type": "bytes32"
        },
        {
          "internalType": "bytes32",
          "name": "counterpartyRef",
          "type": "bytes32"
        }
      ],
      "name": "tradeSettled",
      "outputs": [],
      "stateMutability": "nonpayable",
      "type": "function"
    },
    {
      "inputs": [
        {
          "internalType": "address",
          "name": "recipient",
          "type": "address"
        },
        {
          "internalType": "uint256",
          "name": "amount",
          "type": "uint256"
        }
      ],
      "name": "transfer",
      "outputs": [
        {
          "internalType": "bool",
          "name": "",
          "type": "bool"
        }
      ],
      "stateMutability": "nonpayable",
      "type": "function"
    },
    {
      "inputs": [
        {
          "internalType": "address",
          "name": "sender",
          "type": "address"
        },
        {
          "internalType": "address",
          "name": "recipient",
          "type": "address"
        },
        {
          "internalType": "uint256",
          "name": "amount",
          "type": "uint256"
        }
      ],
      "name": "transferFrom",
      "outputs": [
        {
          "internalType": "bool",
          "name": "",
          "type": "bool"
        }
      ],
      "stateMutability": "nonpayable",
      "type": "function"
    },
    {
      "inputs": [],
      "name": "unpause",
      "outputs": [],
      "stateMutability": "nonpayable",
      "type": "function"
    }
  ],
  "bytecode": "0x6102c06040527f6e71edae12b1b97f4d1f60370fef10105fa2faae0126114a169c64845d6126c960e052600a805460ff60a01b1916600160a01b17905560006019819055601b819055601c553480156200005857600080fd5b5060405162006583380380620065838339810160408190526200007b9162000abf565b8960008a8a6200008c8b8b62000456565b60408051600280825260608201835290916020830190803683370190505089898989828289898d85336001600160a01b031660001b8480604051806040016040528060018152602001603160f81b81525087878160039080519060200190620000f792919062000937565b5080516200010d90600490602084019062000937565b50506005805460ff19166012179055508151602092830120608052805191012060a052507f8b73c3c69bb8fe3d512ecc4cf759cc79239f7b179b0ffacaa9a75d522b39400f60c052610100526001600160601b0319606091821b81166101205291901b1661014052506200018c90506276a70083111561019462000507565b620001a062278d0082111561019562000507565b4290910161016081905201610180528551620001c2906002111560c862000507565b620001dc620001d06200051c565b8751111560c962000507565b620001f2866200052160201b62001ff41760201c565b620001fd846200052d565b6040516309b2760f60e01b81526000906001600160a01b038c16906309b2760f906200022e908d9060040162000c5d565b602060405180830381600087803b1580156200024957600080fd5b505af11580156200025e573d6000803e3d6000fd5b505050506040513d601f19601f8201168201806040525081019062000284919062000a87565b604051633354e3e960e11b81529091506001600160a01b038c16906366a9c7d290620002b99084908b908b9060040162000bc1565b600060405180830381600087803b158015620002d457600080fd5b505af1158015620002e9573d6000803e3d6000fd5b50505050806101a081815250508a6001600160a01b031663d2946c2b6040518163ffffffff1660e01b815260040160206040518083038186803b1580156200033057600080fd5b505afa15801562000345573d6000803e3d6000fd5b505050506040513d601f19601f820116820180604052508101906200036b919062000aa0565b6001600160a01b03166101c0816001600160a01b031660601b815250505050505050505050505050866001600160a01b03166101e0816001600160a01b031660601b81525050856001600160a01b0316610200816001600160a01b031660601b815250506000806000620003e78a8a30620005c160201b60201c565b6102608190526102808390526102a0829052919450925090506200040b8a620006b7565b610220526200041a89620006b7565b610240525050506009949094555050600a80546001600160a01b0319166001600160a01b03909316929092179091555062000c9d945050505050565b6040805160028082526060808301845292602083019080368337019050509050816001600160a01b0316836001600160a01b03161162000497578262000499565b815b81600081518110620004a757fe5b6001600160a01b0392831660209182029290920101528281169084161115620004d15782620004d3565b815b81600181518110620004e157fe5b60200260200101906001600160a01b031690816001600160a01b03168152505092915050565b81620005185762000518816200078b565b5050565b600290565b806200051881620007de565b620005466200053b6200086b565b82101560cb62000507565b6200055f6200055462000874565b82111560ca62000507565b620005818160c060406008546200088060201b62001ffe17909392919060201c565b6008556040517fa9ba3ffe0b6c366b81232caab38605a0699ad5398d6cce76f91ee809e322dafc90620005b690839062000c72565b60405180910390a150565b6000806000846001600160a01b0316866001600160a01b031610156200064a57836001600160a01b0316856001600160a01b031610156200060d575060009150600190506002620006ae565b836001600160a01b0316866001600160a01b0316101562000639575060009150600290506001620006ae565b5060019150600290506000620006ae565b846001600160a01b0316846001600160a01b0316101562000676575060029150600190506000620006ae565b856001600160a01b0316846001600160a01b03161015620006a2575060029150600090506001620006ae565b50600191506000905060025b93509350939050565b60006001600160a01b038216301415620006db5750670de0b6b3a764000062000786565b6000826001600160a01b031663313ce5676040518163ffffffff1660e01b815260040160206040518083038186803b1580156200071757600080fd5b505afa1580156200072c573d6000803e3d6000fd5b505050506040513d601f19601f8201168201806040525081019062000752919062000b9e565b60ff169050600062000771601283620008a560201b620020211760201c565b905080600a0a670de0b6b3a764000002925050505b919050565b62461bcd60e51b6000908152602060045260076024526642414c23000030600a808404818106603090810160081b95839006959095019082900491820690940160101b939093010160c81b604452606490fd5b600281511015620007ef5762000868565b600081600081518110620007ff57fe5b602002602001015190506000600190505b8251811015620008655760008382815181106200082957fe5b602002602001015190506200085a816001600160a01b0316846001600160a01b03161060656200050760201b60201c565b915060010162000810565b50505b50565b64e8d4a5100090565b67016345785d8a000090565b60006200088f848484620008c2565b506001901b60001901811b1992909216911b1790565b6000620008b783831115600162000507565b508082035b92915050565b620008d36101008310606462000507565b6200090c600182101580156200090457506200090060ff84610100036200091d60201b620020371760201c565b8211155b606462000507565b6200086583821c156101b462000507565b60008183106200092e578162000930565b825b9392505050565b828054600181600116156101000203166002900490600052602060002090601f016020900481019282601f106200097a57805160ff1916838001178555620009aa565b82800160010185558215620009aa579182015b82811115620009aa5782518255916020019190600101906200098d565b50620009b8929150620009bc565b5090565b5b80821115620009b85760008155600101620009bd565b8051620008bc8162000c87565b600082601f830112620009f1578081fd5b81516001600160401b038082111562000a08578283fd5b6040516020601f8401601f191682018101838111838210171562000a2a578586fd5b8060405250819450838252868185880101111562000a4757600080fd5b600092505b8383101562000a6b578583018101518284018201529182019162000a4c565b8383111562000a7d5760008185840101525b5050505092915050565b60006020828403121562000a99578081fd5b5051919050565b60006020828403121562000ab2578081fd5b8151620009308162000c87565b6000806000806000806000806000806101408b8d03121562000adf578586fd5b62000aeb8c8c620009d3565b60208c0151909a506001600160401b038082111562000b08578788fd5b62000b168e838f01620009e0565b9a5060408d015191508082111562000b2c578788fd5b5062000b3b8d828e01620009e0565b98505062000b4d8c60608d01620009d3565b965062000b5e8c60808d01620009d3565b955060a08b0151945060c08b0151935060e08b015192506101008b0151915062000b8d8c6101208d01620009d3565b90509295989b9194979a5092959850565b60006020828403121562000bb0578081fd5b815160ff8116811462000930578182fd5b60006060820185835260206060818501528186518084526080860191508288019350845b8181101562000c0d5762000bfa855162000c7b565b8352938301939183019160010162000be5565b505084810360408601528551808252908201925081860190845b8181101562000c4f5762000c3c835162000c7b565b8552938301939183019160010162000c27565b509298975050505050505050565b602081016003831062000c6c57fe5b91905290565b90815260200190565b6001600160a01b031690565b6001600160a01b03811681146200086857600080fd5b60805160a05160c05160e051610100516101205160601c6101405160601c61016051610180516101a0516101c05160601c6101e05160601c6102005160601c610220516102405161026051610280516102a0516157ac62000dd7600039806108d95280610a5252806120ce52806123a052508061091d528061208d52806123ed52508061210f528061349852505050806107cd5280610a0e528061124952806115715280611e98528061466752806148085280614a145250806108955280610a7d52806110a9528061152352806116c852806119725280611a375280611e4a528061462c52806147b952806149b3525080611b5d5250806110fc525080612bb7525080612b935250806118c85250806118a452508061182e525080611bb4525080612cbd525080612cff525080612cde52506157ac6000f3fe608060405234801561001057600080fd5b506004361061030a5760003560e01c806370a082311161019c57806395d89b41116100ee578063b7b814fc11610097578063d5c096c411610071578063d5c096c4146105ed578063dd62ed3e14610600578063e9fad8ee146106135761030a565b8063b7b814fc146105ca578063d2946c2b146105d2578063d505accf146105da5761030a565b8063a9059cbb116100c8578063a9059cbb146105a7578063aaabadc5146105ba578063b35056b8146105c25761030a565b806395d89b411461056b578063a3b1379914610573578063a457c2d7146105945761030a565b806382fce88f1161015057806387ec68171161012a57806387ec681714610548578063893d20e81461055b5780638d928af8146105635761030a565b806382fce88f1461051a5780638456cb591461052d578063851c1bb3146105355761030a565b806374f3b0091161018157806374f3b009146104de5780637ecebe00146104ff5780638129fc1c146105125761030a565b806370a08231146104b85780637489ec23146104cb5761030a565b8063313ce5671161026057806346b8b7301161020957806355c67628116101e357806355c67628146104875780636028bfd41461048f5780636945c1fd146104b05761030a565b806346b8b7301461045757806350dd6ed91461046c57806354a844ba1461047f5761030a565b806338fff2d01161023a57806338fff2d014610434578063395093511461043c5780633f4ba83a1461044f5761030a565b8063313ce567146104045780633644e5151461041957806338e9922e146104215761030a565b806318160ddd116102c25780631f0404801161029c5780631f040480146103c957806323b872dd146103dc5780632541897f146103ef5761030a565b806318160ddd146103955780631c0de0511461039d5780631dd746ea146103b45761030a565b8063095ea7b3116102f3578063095ea7b31461034d5780630c8605be1461036d57806313ce4546146103825761030a565b806301ec954a1461030f57806306fdde0314610338575b600080fd5b61032261031d36600461505e565b61061b565b60405161032f9190615513565b60405180910390f35b610340610b34565b60405161032f9190615625565b61036061035b366004614e4a565b610bca565b60405161032f91906154f0565b61038061037b366004614f89565b610be1565b005b610380610390366004614f68565b610d1e565b610322610f29565b6103a5610f2f565b60405161032f939291906154fb565b6103bc610f58565b60405161032f91906154af565b6103806103d7366004614f89565b610f67565b6103606103ea366004614d9a565b611033565b6103f76110a7565b60405161032f91906153ed565b61040c6110cb565b60405161032f919061571d565b6103226110d4565b61038061042f366004614e95565b6110de565b6103226110fa565b61036061044a366004614e4a565b61111e565b610380611159565b61045f61116d565b60405161032f919061546b565b61038061047a366004615010565b6111cd565b6103806111eb565b6103226111fd565b6104a261049d366004614ec5565b611210565b60405161032f929190615704565b6103f7611247565b6103226104c6366004614d46565b61126b565b6103806104d9366004614e95565b61128a565b6104f16104ec366004614ec5565b6113e3565b60405161032f9291906154c2565b61032261050d366004614d46565b6114e6565b610380611501565b610380610528366004614f89565b611740565b610380611818565b610322610543366004614fb4565b61182a565b6104a2610556366004614ec5565b61187c565b6103f76118a2565b6103f76118c6565b6103406118ea565b610586610581366004614e95565b61194b565b60405161032f929190615369565b6103606105a2366004614e4a565b611ae6565b6103606105b5366004614e4a565b611b24565b6103f7611b31565b610360611b3b565b610380611b49565b6103f7611b5b565b6103806105e8366004614dda565b611b7f565b6104f16105fb366004614ec5565b611cc8565b61032261060e366004614d62565b611deb565b610380611e28565b6000846080015161064861062d6118c6565b6001600160a01b0316336001600160a01b03161460cd61204f565b61065d6106536110fa565b82146101f461204f565b606061066761205d565b905060608060005b8961010001515181101561075b57600581116106e157896101000151818151811061069657fe5b602001015160f81c60f81b8382815181106106ad57fe5b60200101907effffffffffffffffffffffffffffffffffffffffffffffffffffffffffffff1916908160001a905350610753565b600681101580156106f3575060268111155b1561075357896101000151818151811061070957fe5b602001015160f81c60f81b82600683038151811061072357fe5b60200101907effffffffffffffffffffffffffffffffffffffffffffffffffffffffffffff1916908160001a9053505b60010161066f565b50610764614b8e565b604051806040016040528061077885612148565b815260200161078684612166565b90529050600080808c51600181111561079b57fe5b14156109da576107c28c60600151878c815181106107b557fe5b6020026020010151612208565b8c60600181815250507f00000000000000000000000000000000000000000000000000000000000000006001600160a01b03168c604001516001600160a01b03161415610893576108358c847f53656c6c000000000000000000000000000000000000000000000000000000008e612214565b84519093509091507f4d61726b65740000000000000000000000000000000000000000000000000000141561088e5761088181878b8151811061087457fe5b6020026020010151612686565b9750505050505050610b2b565b6109d5565b7f00000000000000000000000000000000000000000000000000000000000000006001600160a01b03168c604001516001600160a01b031614156109d55760006109148c7f00000000000000000000000000000000000000000000000000000000000000008151811061090257fe5b60200260200101518e60600151612692565b9050610955818d7f00000000000000000000000000000000000000000000000000000000000000008151811061094657fe5b602002602001015160006126a4565b60608e01526109868d857f42757900000000000000000000000000000000000000000000000000000000008f612214565b85519094509092507f4d61726b6574000000000000000000000000000000000000000000000000000014156109d3576109c583888c8151811061087457fe5b985050505050505050610b2b565b505b610b24565b60018c5160018111156109e957fe5b1415610b2457610a038c60600151878b815181106107b557fe5b8c60600181815250507f00000000000000000000000000000000000000000000000000000000000000006001600160a01b03168c602001516001600160a01b03161415610a7b5760006109148c7f00000000000000000000000000000000000000000000000000000000000000008151811061090257fe5b7f00000000000000000000000000000000000000000000000000000000000000006001600160a01b03168c602001516001600160a01b03161415610b2457610ae58c847f53656c6c000000000000000000000000000000000000000000000000000000008e612214565b84519093509091507f4d61726b657400000000000000000000000000000000000000000000000000001415610b245761088181878b8151811061087457fe5b5050505050505b50949350505050565b60038054604080516020601f6002600019610100600188161502019095169490940493840181900481028201810190925282815260609390929091830182828015610bc05780601f10610b9557610100808354040283529160200191610bc0565b820191906000526020600020905b815481529060010190602001808311610ba357829003601f168201915b5050505050905090565b6000610bd73384846126cc565b5060015b92915050565b6000838152600c60205260409020600301547f4f70656e0000000000000000000000000000000000000000000000000000000014610c1e57600080fd5b6000838152600c60205260409020600601546001600160a01b0316331415610d19576000838152600c602052604090206007810183905560048101829055426005820155600101547f4c696d69740000000000000000000000000000000000000000000000000000001415610cb9576000838152600c6020908152604080832054835260129091529020839055610cb482612734565b610d19565b6000838152600c60205260409020600101547f53746f70000000000000000000000000000000000000000000000000000000001415610d19576000838152600c6020908152604080832054835260159091529020839055610d1982612954565b505050565b600a546001600160a01b03163314610d3557600080fd5b6000828152600c60209081526040808320600601546001600160a01b03168352600e8252808320858452600f9092529091205481548110610d7257fe5b60009182526020808320909101829055838252600f81526040808320839055600c825280832083815560018101849055600281018490556003810184905560048101849055600581018490556006810180547fffffffffffffffffffffffff00000000000000000000000000000000000000001690556007810184905560088101849055600901839055600d909152902054600b80549091908110610e1357fe5b60009182526020808320909101829055838252600d81526040808320839055838352600c8252808320600601546001600160a01b03168352600e8252808320848452600f9092529091205481548110610e6857fe5b60009182526020808320909101829055828252600f81526040808320839055600c825280832083815560018101849055600281018490556003810184905560048101849055600581018490556006810180547fffffffffffffffffffffffff00000000000000000000000000000000000000001690556007810184905560088101849055600901839055600d909152902054600b80549091908110610f0957fe5b60009182526020808320909101829055918152600d909152604081205550565b60025490565b6000806000610f3c612b74565b159250610f47612b91565b9150610f51612bb5565b9050909192565b6060610f6261205d565b905090565b807f42757900000000000000000000000000000000000000000000000000000000001480610fb45750807f53656c6c00000000000000000000000000000000000000000000000000000000145b610fbd57600080fd5b600a546001600160a01b03163314610fd457600080fd5b506000828152600c602090815260408083206004810180549095019094557f4f70656e000000000000000000000000000000000000000000000000000000006003850155600b5493849055928252601090522055601180546001019055565b6000806110408533611deb565b9050611064336001600160a01b038716148061105c5750838210155b61019e61204f565b61106f858585612bd9565b336001600160a01b0386161480159061108a57506000198114155b1561109c5761109c85338584036126cc565b506001949350505050565b7f000000000000000000000000000000000000000000000000000000000000000090565b60055460ff1690565b6000610f62612cb9565b6110e6612d56565b6110ee612d9c565b6110f781612daf565b50565b7f000000000000000000000000000000000000000000000000000000000000000090565b3360008181526001602090815260408083206001600160a01b03871684529091528120549091610bd79185906111549086612692565b6126cc565b611161612d56565b61116b6000612e28565b565b336000908152600e6020908152604091829020805483518184028101840190945280845260609392830182828015610bc057602002820191906000526020600020905b8154815260200190600101908083116111b0575050505050905090565b6111d5612d56565b6111dd612d9c565b6111e78282612eb9565b5050565b6111f3612d56565b61116b6001612fd1565b600854600090610f629060c06040613031565b600060606112268651611221613040565b613045565b61123b8989898989898961305261306e6130cf565b97509795505050505050565b7f000000000000000000000000000000000000000000000000000000000000000090565b6001600160a01b0381166000908152602081905260409020545b919050565b6000818152600c60205260409020600601546001600160a01b031633146112b057600080fd5b6000818152600c602090815260408083208054845260108352818420849055805484526013835281842084905580548452601283528184208490558054845260168352818420849055805484526015835281842084905584845283815560018101849055600281018490556003810184905560048101849055600581018490556006810180547fffffffffffffffffffffffff00000000000000000000000000000000000000001690556007810184905560088101849055600901839055600d909152902054600b8054909190811061138557fe5b60009182526020808320909101829055828252600d81526040808320839055338352600e8252808320848452600f90925290912054815481106113c457fe5b60009182526020808320909101829055918152600f9091526040812055565b606080886113f261062d6118c6565b6113fd6106536110fa565b6060600061140a8661325e565b156114325761141761328d565b61142989611423610f29565b886132a4565b92509050611484565b61143a612d9c565b606061144461205d565b90506114508a826132d0565b6114748d8d8d8d8d611460611b3b565b61146a578d61146d565b60005b878e613052565b93509150611482838261306e565b505b61148e8b82613331565b81895167ffffffffffffffff811180156114a757600080fd5b506040519080825280602002602001820160405280156114d1578160200160208202803683370190505b509450945050505b5097509795505050505050565b6001600160a01b031660009081526006602052604090205490565b60408051600280825260608083018452926020830190803683370190505090507f00000000000000000000000000000000000000000000000000000000000000008160008151811061154f57fe5b60200260200101906001600160a01b031690816001600160a01b0316815250507f00000000000000000000000000000000000000000000000000000000000000008160018151811061159d57fe5b6001600160a01b039290921660209283029190910190910152604080516001808252818301909252606091816020016020820280368337019050509050600954816000815181106115ea57fe5b6020026020010181815250506115fe614ba5565b506040805160808101825283815260208082018490528251908101835260008082529282015260608101919091526116346118c6565b6001600160a01b031663b95cac2861164a6110fa565b600a546040517fffffffff0000000000000000000000000000000000000000000000000000000060e085901b16815261169492916001600160a01b0316903090879060040161551c565b600060405180830381600087803b1580156116ae57600080fd5b505af11580156116c2573d6000803e3d6000fd5b505050507f00000000000000000000000000000000000000000000000000000000000000006001600160a01b03167ff1f17f1a9edc53df960a0bec0dc86cb2bf5606c7826b3b8e701e70c91c28aa2a8360008151811061171e57fe5b60200260200101516040516117339190615513565b60405180910390a2505050565b600a546001600160a01b0316331461175757600080fd5b6000928352601d6020908152604080852080547fffffffffffffffffffffffff0000000000000000000000000000000000000000908116825560018201805482169055600282018054821690556003808301889055600483018890556005830180549092169091556006820187905560078201879055600882018790556009909101869055938552600c9091528084207f46696c6c656400000000000000000000000000000000000000000000000000009084018190559184529092200155565b611820612d56565b61116b6001612e28565b60007f00000000000000000000000000000000000000000000000000000000000000008260405160200161185f929190615377565b604051602081830303815290604052805190602001209050919050565b6000606061188d8651611221613040565b61123b8989898989898961305261333b6130cf565b7f000000000000000000000000000000000000000000000000000000000000000090565b7f000000000000000000000000000000000000000000000000000000000000000090565b60048054604080516020601f6002600019610100600188161502019095169490940493840181900481028201810190925282815260609390929091830182828015610bc05780601f10610b9557610100808354040283529160200191610bc0565b6000818152601e60209081526040808320548352601d9091528120600201548190819081907f00000000000000000000000000000000000000000000000000000000000000006001600160a01b0390811691161480156119e857506000858152601e60209081526040808320548352601d9091529020600601547f4275790000000000000000000000000000000000000000000000000000000000145b15611a165750506000838152601e60209081526040808320548352601d909152902060038101546004909101545b6000858152601e60209081526040808320548352601d9091529020600201547f00000000000000000000000000000000000000000000000000000000000000006001600160a01b039081169116148015611aad57506000858152601e60209081526040808320548352601d9091529020600601547f53656c6c00000000000000000000000000000000000000000000000000000000145b15611adc5750506000838152601e60209081526040808320548352601d90915290206003810154600490910154905b9092509050915091565b600080611af33385611deb565b9050808310611b0d57611b08338560006126cc565b611b1a565b611b1a33858584036126cc565b5060019392505050565b6000610bd7338484612bd9565b6000610f6261339c565b600754610100900460ff1690565b611b51612d56565b61116b6000612fd1565b7f000000000000000000000000000000000000000000000000000000000000000090565b611b8d8442111560d161204f565b6001600160a01b0387166000908152600660209081526040808320549051909291611be4917f0000000000000000000000000000000000000000000000000000000000000000918c918c918c9188918d9101615577565b6040516020818303038152906040528051906020012090506000611c0782613416565b9050600060018288888860405160008152602001604052604051611c2e9493929190615607565b6020604051602081039080840390855afa158015611c50573d6000803e3d6000fd5b5050604051601f1901519150611c9290506001600160a01b03821615801590611c8a57508b6001600160a01b0316826001600160a01b0316145b6101f861204f565b6001600160a01b038b166000908152600660205260409020600185019055611cbb8b8b8b6126cc565b5050505050505050505050565b60608088611cd761062d6118c6565b611ce26106536110fa565b6060611cec61205d565b9050611cf6612d9c565b611cfe610f29565b611dab5760006060611d138d8d8d868b613432565b91509150611d2c611d226134dc565b83101560cc61204f565b611d3e6000611d396134dc565b6134e3565b611d518b611d4a6134dc565b84036134e3565b611d5b818461333b565b808a5167ffffffffffffffff81118015611d7457600080fd5b50604051908082528060200260200182016040528015611d9e578160200160208202803683370190505b50955095505050506114d9565b611db588826132d0565b60006060611ddd8d8d8d8d8d611dc9611b3b565b611dd3578d611dd6565b60005b898e613052565b91509150611d518b836134e3565b6000611df56118c6565b6001600160a01b0316826001600160a01b03161415611e175750600019610bdb565b611e2183836134ed565b9050610bdb565b60408051600280825260608083018452926020830190803683370190505090507f000000000000000000000000000000000000000000000000000000000000000081600081518110611e7657fe5b60200260200101906001600160a01b031690816001600160a01b0316815250507f000000000000000000000000000000000000000000000000000000000000000081600181518110611ec457fe5b6001600160a01b03929092166020928302919091019091015260408051600180825281830190925260609181602001602082028036833701905050905060095481600081518110611f1157fe5b602002602001018181525050611f25614ba5565b50604080516080810182528381526020808201849052825190810183526000808252928201526060810191909152611f5b6118c6565b6001600160a01b0316638bdb3913611f716110fa565b600a546040517fffffffff0000000000000000000000000000000000000000000000000000000060e085901b168152611fbd929130916001600160a01b0390911690879060040161551c565b600060405180830381600087803b158015611fd757600080fd5b505af1158015611feb573d6000803e3d6000fd5b50505050505050565b806111e781613518565b600061200b848484613591565b506001901b60001901811b1992909216911b1790565b600061203183831115600161204f565b50900390565b60008183106120465781612048565b825b9392505050565b816111e7576111e7816135d8565b604080516002808252606080830184529283929190602083019080368337019050509050670de0b6b3a7640000817f0000000000000000000000000000000000000000000000000000000000000000815181106120b657fe5b602002602001018181525050670de0b6b3a7640000817f0000000000000000000000000000000000000000000000000000000000000000815181106120f757fe5b602002602001018181525050670de0b6b3a7640000817f00000000000000000000000000000000000000000000000000000000000000008151811061213857fe5b6020908102919091010152905090565b8051600090829061215d575060009050611285565b50506020015190565b600080828180805b83518110156121fd57603084828151811061218557fe5b016020015160f81c108015906121af575060398482815181106121a457fe5b016020015160f81c11155b156121f05782915060308482815181106121c557fe5b602001015160f81c60f81b60f81c60ff160383600a02019250828211156121eb57600194505b6121f5565b600194505b60010161216e565b509095945050505050565b60006120488383613645565b60008084600001517f4d61726b657400000000000000000000000000000000000000000000000000001480612269575084517f4c696d6974000000000000000000000000000000000000000000000000000000145b80612294575084517f53746f7000000000000000000000000000000000000000000000000000000000145b61229d57600080fd5b837f427579000000000000000000000000000000000000000000000000000000000014806122ea5750837f53656c6c00000000000000000000000000000000000000000000000000000000145b6122f357600080fd5b60008660c001514260405160200161230c929190615334565b60408051808303601f19018152918152815160209283012060c08a01516000828152600c8552929092206006810180547fffffffffffffffffffffffff0000000000000000000000000000000000000000166001600160a01b0390941693909317909255918801516007820155600b54815560608901516004820155600281018790558751600190910155845190915084907f00000000000000000000000000000000000000000000000000000000000000009081106123c857fe5b6020026020010151600c600083815260200190815260200160002060080181905550837f00000000000000000000000000000000000000000000000000000000000000008151811061241657fe5b6020908102919091018101516000838152600c83526040808220600981019390935542600590930192909255600b8054600d8552838320819055600180820183559183527f0175b7a638427703f0dbe7bb9bbf987a2551717b34e79f33b5b1008d1fa01db90185905560c08b0180516001600160a01b039081168452600e80875285852054888652600f88528686205591511683528452918120805492830181558152919091200181905585517f4d61726b65740000000000000000000000000000000000000000000000000000141561256b576000818152600c602090815260408083207f46696c6c65640000000000000000000000000000000000000000000000000000600382015554835260109091529020819055601180546001019055612561817f6d61726b6574000000000000000000000000000000000000000000000000000061367b565b925092505061267d565b85517f4c696d697400000000000000000000000000000000000000000000000000000014156125f2576000818152600c602090815260408083207f4f70656e000000000000000000000000000000000000000000000000000000006003820155548352601282529091208290556014805460010190558601516125ed90612734565b612674565b85517f53746f70000000000000000000000000000000000000000000000000000000001415612674576000818152600c602090815260408083207f4f70656e0000000000000000000000000000000000000000000000000000000060038201555483526015825290912082905560178054600101905586015161267490612954565b60008092509250505b94509492505050565b60006120488383613f75565b6000828201612048848210158361204f565b6000816126ba576126b58484613fc6565b6126c4565b6126c48484613fe6565b949350505050565b6001600160a01b0380841660008181526001602090815260408083209487168084529490915290819020849055517f8c5be1e5ebec7d5bd14f71427d1e84f3dd0314c0f7b2291e5b200ac8c7c3b92590612727908590615513565b60405180910390a3505050565b6000805b601454811015610d19576000818152601260209081526040808320548352600c9091529020600201547f42757900000000000000000000000000000000000000000000000000000000001480156127ad57506000818152601260209081526040808320548352600c9091529020600701548311155b156128495760008181526012602081815260408084208054808652600c845282862054865260108452918520919091556011805460010190559284905252549150612818817f6c696d6974000000000000000000000000000000000000000000000000000000614019565b612842827f6c696d697400000000000000000000000000000000000000000000000000000061367b565b505061294c565b6000818152601260209081526040808320548352600c9091529020600201547f53656c6c000000000000000000000000000000000000000000000000000000001480156128b457506000818152601260209081526040808320548352600c9091529020600701548310155b1561294c5760008181526012602081815260408084208054808652600c84528286205486526010845291852091909155601180546001019055928490525254915061291f817f6c696d6974000000000000000000000000000000000000000000000000000000614019565b612949827f6c696d697400000000000000000000000000000000000000000000000000000061367b565b50505b600101612738565b6000805b601754811015610d19576000818152601560209081526040808320548352600c9091529020600201547f42757900000000000000000000000000000000000000000000000000000000001480156129cd57506000818152601560209081526040808320548352600c9091529020600701548310155b15612a695760008181526015602081815260408084208054808652600c845282862054865260108452918520919091556011805460010190559284905252549150612a38817f73746f7000000000000000000000000000000000000000000000000000000000614019565b612a62827f73746f700000000000000000000000000000000000000000000000000000000061367b565b5050612b6c565b6000818152601560209081526040808320548352600c9091529020600201547f53656c6c00000000000000000000000000000000000000000000000000000000148015612ad457506000818152601560209081526040808320548352600c9091529020600701548311155b15612b6c5760008181526015602081815260408084208054808652600c845282862054865260108452918520919091556011805460010190559284905252549150612b3f817f73746f7000000000000000000000000000000000000000000000000000000000614019565b612b69827f73746f700000000000000000000000000000000000000000000000000000000061367b565b50505b600101612958565b6000612b7e612bb5565b421180610f6257505060075460ff161590565b7f000000000000000000000000000000000000000000000000000000000000000090565b7f000000000000000000000000000000000000000000000000000000000000000090565b612bf06001600160a01b038416151561019861204f565b612c076001600160a01b038316151561019961204f565b612c12838383610d19565b6001600160a01b038316600090815260208190526040902054612c3890826101a06141b0565b6001600160a01b038085166000908152602081905260408082209390935590841681522054612c679082612692565b6001600160a01b0380841660008181526020819052604090819020939093559151908516907fddf252ad1be2c89b69c2b068fc378daa952ba7f163c4a11628f55a4df523b3ef90612727908590615513565b60007f00000000000000000000000000000000000000000000000000000000000000007f00000000000000000000000000000000000000000000000000000000000000007f0000000000000000000000000000000000000000000000000000000000000000612d266141c6565b30604051602001612d3b9594939291906155ab565b60405160208183030381529060405280519060200120905090565b6000612d856000357fffffffff000000000000000000000000000000000000000000000000000000001661182a565b90506110f7612d9482336141ca565b61019161204f565b61116b612da7612b74565b61019261204f565b612dc4612dba6142b3565b82101560cb61204f565b612dd9612dcf6142bc565b82111560ca61204f565b600854612dea908260c06040611ffe565b6008556040517fa9ba3ffe0b6c366b81232caab38605a0699ad5398d6cce76f91ee809e322dafc90612e1d908390615513565b60405180910390a150565b8015612e4857612e43612e39612b91565b421061019361204f565b612e5d565b612e5d612e53612bb5565b42106101a961204f565b600780547fffffffffffffffffffffffffffffffffffffffffffffffffffffffffffffff00168215151790556040517f9e3a5e37224532dea67b89face185703738a228a6e8a23dee546960180d3be6490612e1d9083906154f0565b6000612ec36110fa565b90506000612ecf6118c6565b6001600160a01b031663b05f8e4883866040518363ffffffff1660e01b8152600401612efc9291906155f0565b60806040518083038186803b158015612f1457600080fd5b505afa158015612f28573d6000803e3d6000fd5b505050506040513d601f19601f82011682018060405250810190612f4c919061517d565b6040517f18e736d40000000000000000000000000000000000000000000000000000000081529094506001600160a01b03851693506318e736d49250612f999150859087906004016155d7565b600060405180830381600087803b158015612fb357600080fd5b505af1158015612fc7573d6000803e3d6000fd5b5050505050505050565b600780547fffffffffffffffffffffffffffffffffffffffffffffffffffffffffffff00ff16610100831515021790556040517feff3d4d215b42bf0960be9c6d5e05c22cba4df6627a3a523e2acee733b5854c890612e1d9083906154f0565b6001901b6000190191901c1690565b600290565b6111e7818314606761204f565b600060606130616101366135d8565b9850989650505050505050565b60005b613079613040565b811015610d19576130b083828151811061308f57fe5b60200260200101518383815181106130a357fe5b6020026020010151613f75565b8382815181106130bc57fe5b6020908102919091010152600101613071565b3330146131be576000306001600160a01b03166000366040516130f39291906153a7565b6000604051808303816000865af19150503d8060008114613130576040519150601f19603f3d011682016040523d82523d6000602084013e613135565b606091505b50509050806000811461314457fe5b60046000803e6000517fffffffff00000000000000000000000000000000000000000000000000000000167f43adbafb0000000000000000000000000000000000000000000000000000000081146131a0573d6000803e3d6000fd5b506020600460003e604060205260243d03602460403e601c3d016000f35b60606131c861205d565b90506131d487826132d0565b600060606131ec8c8c8c8c8c8c898d8d63ffffffff16565b915091506131fe81848663ffffffff16565b8051601f1982018390526343adbafb7fffffffffffffffffffffffffffffffffffffffffffffffffffffffffffffffc08301526020027fffffffffffffffffffffffffffffffffffffffffffffffffffffffffffffffdc82016044820181fd5b6000808251118015610bdb575060ff80168280602001905181019061328391906151bd565b60ff161492915050565b60075461116b90610100900460ff166101b661204f565b6000606060006132b3846142c8565b905060606132c28787846142de565b919791965090945050505050565b60005b6132db613040565b811015610d19576133128382815181106132f157fe5b602002602001015183838151811061330557fe5b6020026020010151613645565b83828151811061331e57fe5b60209081029190910101526001016132d3565b6111e7828261438d565b60005b613346613040565b811015610d195761337d83828151811061335c57fe5b602002602001015183838151811061337057fe5b6020026020010151614449565b83828151811061338957fe5b602090810291909101015260010161333e565b60006133a66118c6565b6001600160a01b031663aaabadc56040518163ffffffff1660e01b815260040160206040518083038186803b1580156133de57600080fd5b505afa1580156133f2573d6000803e3d6000fd5b505050506040513d601f19601f82011682018060405250810190610f629190614ff4565b6000613420612cb9565b8260405160200161185f9291906153b7565b6000606061343e612d9c565b600a5461345b906001600160a01b038881169116146101aa61204f565b6134726001600160a01b03861630146101aa61204f565b6040805160028082526060808301845292602083019080368337019050509050600954817f0000000000000000000000000000000000000000000000000000000000000000815181106134c157fe5b60209081029190910101526009549890975095505050505050565b620f424090565b6111e78282614497565b6001600160a01b03918216600090815260016020908152604080832093909416825291909152205490565b600281511015613527576110f7565b60008160008151811061353657fe5b602002602001015190506000600190505b8251811015610d1957600083828151811061355e57fe5b60200260200101519050613587816001600160a01b0316846001600160a01b031610606561204f565b9150600101613547565b6135a06101008310606461204f565b6135c9600182101580156135c257506135be60ff8461010003612037565b8211155b606461204f565b610d1983821c156101b461204f565b7f08c379a0000000000000000000000000000000000000000000000000000000006000908152602060045260076024526642414c23000030600a808404818106603090810160081b95839006959095019082900491820690940160101b939093010160c81b604452606490fd5b600082820261366984158061366257508385838161365f57fe5b04145b600361204f565b670de0b6b3a764000090049392505050565b60008060005b6011548110156139855760008181526010602052604090205485148015906136e357506000858152600c602081815260408084206006908101548686526010845282862054865293909252909220909101546001600160a01b03908116911614155b801561372d57506000818152601060209081526040808320548352600c9091529020600301547f46696c6c6564000000000000000000000000000000000000000000000000000014155b1561397d576000818152601060209081526040808320548352600c9091529020600201547f42757900000000000000000000000000000000000000000000000000000000001480156137af57506000858152600c60205260409020600201547f53656c6c00000000000000000000000000000000000000000000000000000000145b1561385a576000858152600c6020818152604080842060079081015486865260108452828620548652939092529092209091015410613855576019546000828152601060209081526040808320548352600c9091529020600701541115613855576000818152601060209081526040808320548352600c909152902060070154601955600b80548290811061384057fe5b600091825260209091200154601855601c8190555b61397d565b6000818152601060209081526040808320548352600c9091529020600201547f53656c6c000000000000000000000000000000000000000000000000000000001480156138d757506000858152600c60205260409020600201547f4275790000000000000000000000000000000000000000000000000000000000145b1561397d576000858152600c602081815260408084206007908101548686526010845282862054865293909252909220909101541161397d57601b546000828152601060209081526040808320548352600c909152902060070154111561397d576000818152601060209081526040808320548352600c909152902060070154601b55600b80548290811061396857fe5b600091825260209091200154601a55601c8190555b600101613681565b506000848152600c60205260409020600201547f53656c6c000000000000000000000000000000000000000000000000000000001415613ca05760185415613c95576000848152600c60205260408082206004908101546018548452919092209091015410613b0e576000848152600c6020526040808220600480820180546018805487528587209093018054919091039055805490859055815485528385207f46696c6c656400000000000000000000000000000000000000000000000000006003918201819055908401556006808401549254808752948620015494899052600783015460028401546001909401549195613a99958b956001600160a01b039586169591949190921692918891614525565b613ac5601c547f6d61726b65740000000000000000000000000000000000000000000000000000614019565b837f6d61726b657400000000000000000000000000000000000000000000000000001415613b08576000858152600c602052604090206007015492509050613f6e565b50613c09565b601880546000908152600c602052604080822060049081015488845282842080830180549290920390915584548452828420909101805490849055845484528284207f506172746c7946696c6c656400000000000000000000000000000000000000006003918201819055908301556006808301549554808652938520015493899052600782015460028301546001909301549195613bc4958b956001600160a01b039283169590949190921692918891614525565b837f6d61726b657400000000000000000000000000000000000000000000000000001415613c07576000858152600c602052604090206007015492509050613f6e565b505b6000848152600c602052604090206009810154600490910154613c2c9190612021565b6000858152600c6020526040902060098101919091556008810154600790910154613c579190612692565b6000858152600c60205260409020600881019190915560070154613c7a90612734565b6000848152600c6020526040902060070154613c9590612954565b506000905080613f6e565b6000848152600c60205260409020600201547f42757900000000000000000000000000000000000000000000000000000000001415613f6e57601a5415613c95576000848152600c6020526040808220600490810154601a548452919092209091015410613e28576000848152600c602052604080822060048082018054601a805487528587209093018054919091039055805490859055815485528385207f46696c6c65640000000000000000000000000000000000000000000000000000600391820181905590840155905480855292842060069081015494899052820154600783015460028401546001909401549295613db395946001600160a01b03918216948c949092169291889190614525565b613ddf601c547f6d61726b65740000000000000000000000000000000000000000000000000000614019565b837f6d61726b657400000000000000000000000000000000000000000000000000001415613e22576000858152600c602052604090206007015492509050613f6e565b50613f20565b601a80546000908152600c602052604080822060049081015488845282842080830180549290920390915584548452828420909101805490849055845484528284207f506172746c7946696c6c6564000000000000000000000000000000000000000060039182018190559083015593548084529183206006908101549389905281015460078201546002830154600190930154613edb956001600160a01b03908116948c949091169291889190614525565b837f6d61726b657400000000000000000000000000000000000000000000000000001415613f1e576000858152600c602052604090206007015492509050613f6e565b505b6000848152600c602052604090206009810154600490910154613f439190612692565b6000858152600c6020526040902060098101919091556008810154600790910154613c579190612021565b9250929050565b6000613f84821515600461204f565b82613f9157506000610bdb565b670de0b6b3a764000083810290613fb490858381613fab57fe5b0414600561204f565b828181613fbd57fe5b04915050610bdb565b6000613fd5821515600461204f565b818381613fde57fe5b049392505050565b6000613ff5821515600461204f565b8261400257506000610bdb565b81600184038161400e57fe5b046001019050610bdb565b807f6d61726b6574000000000000000000000000000000000000000000000000000014156140a157815b6011548110156140915760016011540381141561406e57600083815260106020526040812055614089565b60018301600090815260106020526040808220548583529120555b600101614043565b50601180546000190190556111e7565b807f6c696d6974000000000000000000000000000000000000000000000000000000141561412957815b601454811015614119576001601454038114156140f657600083815260126020526040812055614111565b60018301600090815260126020526040808220548583529120555b6001016140cb565b50601480546000190190556111e7565b807f73746f700000000000000000000000000000000000000000000000000000000014156111e757815b6017548110156141a15760016017540381141561417e57600083815260156020526040812055614199565b60018301600090815260156020526040808220548583529120555b600101614153565b50601780546000190190555050565b60006141bf848411158361204f565b5050900390565b4690565b600073ba1ba1ba1ba1ba1ba1ba1ba1ba1ba1ba1ba1ba1b6141e96118a2565b6001600160a01b031614158015614204575061420483614b02565b1561422c576142116118a2565b6001600160a01b0316336001600160a01b0316149050610bdb565b61423461339c565b6001600160a01b0316639be2a8848484306040518463ffffffff1660e01b815260040161426393929190615558565b60206040518083038186803b15801561427b57600080fd5b505afa15801561428f573d6000803e3d6000fd5b505050506040513d601f19601f82011682018060405250810190611e219190614e75565b64e8d4a5100090565b67016345785d8a000090565b60008180602001905181019061204891906151d9565b606060006142ec8385613f75565b9050845167ffffffffffffffff8111801561430657600080fd5b50604051908082528060200260200182016040528015614330578160200160208202803683370190505b50915060005b8551811015614384576143658287838151811061434f57fe5b602002602001015161364590919063ffffffff16565b83828151811061437157fe5b6020908102919091010152600101614336565b50509392505050565b6143a46001600160a01b038316151561019b61204f565b6143b082600083610d19565b6001600160a01b0382166000908152602081905260409020546143d690826101b26141b0565b6001600160a01b0383166000908152602081905260409020556002546143fc9082614b66565b6002556040516000906001600160a01b038416907fddf252ad1be2c89b69c2b068fc378daa952ba7f163c4a11628f55a4df523b3ef9061443d908590615513565b60405180910390a35050565b6000614458821515600461204f565b8261446557506000610bdb565b670de0b6b3a76400008381029061447f90858381613fab57fe5b82600182038161448b57fe5b04600101915050610bdb565b6144a360008383610d19565b6002546144b09082612692565b6002556001600160a01b0382166000908152602081905260409020546144d69082612692565b6001600160a01b0383166000818152602081905260408082209390935591519091907fddf252ad1be2c89b69c2b068fc378daa952ba7f163c4a11628f55a4df523b3ef9061443d908590615513565b6000827f4275790000000000000000000000000000000000000000000000000000000000141561456757506000888152600c60205260409020600701546145a3565b827f53656c6c0000000000000000000000000000000000000000000000000000000014156145a357506000868152600c60205260409020600701545b600089886040516020016145b8929190615369565b60405160208183030381529060405280519060200120905080601e60008c81526020019081526020016000208190555080601e60008a8152602001908152602001600020819055506040518061014001604052808a6001600160a01b03168152602001886001600160a01b031681526020017f00000000000000000000000000000000000000000000000000000000000000006001600160a01b031681526020018781526020018381526020017f00000000000000000000000000000000000000000000000000000000000000006001600160a01b0316815260200185815260200184815260200186815260200142815250601d600083815260200190815260200160002060008201518160000160006101000a8154816001600160a01b0302191690836001600160a01b0316021790555060208201518160010160006101000a8154816001600160a01b0302191690836001600160a01b0316021790555060408201518160020160006101000a8154816001600160a01b0302191690836001600160a01b03160217905550606082015181600301556080820151816004015560a08201518160050160006101000a8154816001600160a01b0302191690836001600160a01b0316021790555060c0820151816006015560e082015181600701556101008201518160080155610120820151816009015590505060004290507f00000000000000000000000000000000000000000000000000000000000000006001600160a01b03167f156bf7973c4610a54da63e11aee83150e3c726c558bb3a700c5a07f8c89f82268b8a8a877f00000000000000000000000000000000000000000000000000000000000000008c8860405161483c9796959493929190615401565b60405180910390a2600a546040517f055f55400000000000000000000000000000000000000000000000000000000081526000916001600160a01b03169063055f55409061488e908c906004016153ed565b60206040518083038186803b1580156148a657600080fd5b505afa1580156148ba573d6000803e3d6000fd5b505050506040513d601f19601f820116820180604052508101906148de9190614ead565b600a546040517f055f55400000000000000000000000000000000000000000000000000000000081529192506000916001600160a01b039091169063055f55409061492d908f906004016153ed565b60206040518083038186803b15801561494557600080fd5b505afa158015614959573d6000803e3d6000fd5b505050506040513d601f19601f8201168201806040525081019061497d9190614ead565b9050614987614bcf565b604051806101c001604052808e6001600160a01b031681526020018c6001600160a01b031681526020017f00000000000000000000000000000000000000000000000000000000000000006001600160a01b031681526020017f50656e64696e670000000000000000000000000000000000000000000000000081526020018381526020018481526020017f00000000000000000000000000000000000000000000000000000000000000006001600160a01b031681526020018b81526020018a8152602001614a578c8c614b74565b8152602001858152602001306001600160a01b031681526020018f81526020018d8152509050600a60009054906101000a90046001600160a01b03166001600160a01b0316631459945d82876040518363ffffffff1660e01b8152600401614ac0929190615638565b600060405180830381600087803b158015614ada57600080fd5b505af1158015614aee573d6000803e3d6000fd5b505050505050505050505050505050505050565b6000614b2d7f38e9922e0000000000000000000000000000000000000000000000000000000061182a565b821480610bdb5750614b5e7f50dd6ed90000000000000000000000000000000000000000000000000000000061182a565b909114919050565b6000612048838360016141b0565b600082820261204884158061366257508385838161365f57fe5b604080518082019091526000808252602082015290565b60405180608001604052806060815260200160608152602001606081526020016000151581525090565b604080516101c081018252600080825260208201819052918101829052606081018290526080810182905260a0810182905260c0810182905260e08101829052610100810182905261012081018290526101408101829052610160810182905261018081018290526101a081019190915290565b8035610bdb81615752565b600082601f830112614c5e578081fd5b813567ffffffffffffffff811115614c74578182fd5b6020808202614c8482820161572b565b83815293508184018583018287018401881015614ca057600080fd5b600092505b84831015614cc3578035825260019290920191908301908301614ca5565b505050505092915050565b600082601f830112614cde578081fd5b813567ffffffffffffffff811115614cf4578182fd5b614d076020601f19601f8401160161572b565b9150808252836020828501011115614d1e57600080fd5b8060208401602084013760009082016020015292915050565b803560028110610bdb57600080fd5b600060208284031215614d57578081fd5b813561204881615752565b60008060408385031215614d74578081fd5b8235614d7f81615752565b91506020830135614d8f81615752565b809150509250929050565b600080600060608486031215614dae578081fd5b8335614db981615752565b92506020840135614dc981615752565b929592945050506040919091013590565b600080600080600080600060e0888a031215614df4578283fd5b8735614dff81615752565b96506020880135614e0f81615752565b955060408801359450606088013593506080880135614e2d81615767565b9699959850939692959460a0840135945060c09093013592915050565b60008060408385031215614e5c578182fd5b8235614e6781615752565b946020939093013593505050565b600060208284031215614e86578081fd5b81518015158114612048578182fd5b600060208284031215614ea6578081fd5b5035919050565b600060208284031215614ebe578081fd5b5051919050565b600080600080600080600060e0888a031215614edf578081fd5b873596506020880135614ef181615752565b95506040880135614f0181615752565b9450606088013567ffffffffffffffff80821115614f1d578283fd5b614f298b838c01614c4e565b955060808a0135945060a08a0135935060c08a0135915080821115614f4c578283fd5b50614f598a828b01614cce565b91505092959891949750929550565b60008060408385031215614f7a578182fd5b50508035926020909101359150565b600080600060608486031215614f9d578081fd5b505081359360208301359350604090920135919050565b600060208284031215614fc5578081fd5b81357fffffffff0000000000000000000000000000000000000000000000000000000081168114612048578182fd5b600060208284031215615005578081fd5b815161204881615752565b60008060408385031215615022578182fd5b823561502d81615752565b9150602083013567ffffffffffffffff811115615048578182fd5b61505485828601614cce565b9150509250929050565b60008060008060808587031215615073578182fd5b843567ffffffffffffffff8082111561508a578384fd5b818701915061012080838a0312156150a0578485fd5b6150a98161572b565b90506150b58984614d37565b81526150c48960208501614c43565b60208201526150d68960408501614c43565b6040820152606083013560608201526080830135608082015260a083013560a08201526151068960c08501614c43565b60c08201526151188960e08501614c43565b60e08201526101008084013583811115615130578687fd5b61513c8b828701614cce565b828401525050809650506020870135915080821115615159578384fd5b5061516687828801614c4e565b949794965050505060408301359260600135919050565b60008060008060808587031215615192578182fd5b84519350602085015192506040850151915060608501516151b281615752565b939692955090935050565b6000602082840312156151ce578081fd5b815161204881615767565b600080604083850312156151eb578182fd5b82516151f681615767565b6020939093015192949293505050565b6001600160a01b03169052565b6000815180845260208085019450808401835b8381101561524257815187529582019590820190600101615226565b509495945050505050565b15159052565b60008151808452815b818110156152785760208185018101518683018201520161525c565b818111156152895782602083870101525b50601f01601f19169290920160200192915050565b8051608080845281519084018190526000916020919082019060a0860190845b818110156152e35783516001600160a01b0316835292840192918401916001016152be565b5050828501519150858103838701526152fc8183615213565b92505050604083015184820360408601526153178282615253565b915050606083015161532c606086018261524d565b509392505050565b60609290921b7fffffffffffffffffffffffffffffffffffffffff000000000000000000000000168252601482015260340190565b918252602082015260400190565b9182527fffffffff0000000000000000000000000000000000000000000000000000000016602082015260240190565b6000828483379101908152919050565b7f190100000000000000000000000000000000000000000000000000000000000081526002810192909252602282015260420190565b6001600160a01b0391909116815260200190565b6001600160a01b039788168152958716602087015260408601949094526060850192909252909316608083015260a08201929092527f50656e64696e670000000000000000000000000000000000000000000000000060c082015260e08101919091526101000190565b6020808252825182820181905260009190848201906040850190845b818110156154a357835183529284019291840191600101615487565b50909695505050505050565b6000602082526120486020830184615213565b6000604082526154d56040830185615213565b82810360208401526154e78185615213565b95945050505050565b901515815260200190565b92151583526020830191909152604082015260600190565b90815260200190565b60008582526001600160a01b0380861660208401528085166040840152506080606083015261554e608083018461529e565b9695505050505050565b9283526001600160a01b03918216602084015216604082015260600190565b9586526001600160a01b0394851660208701529290931660408501526060840152608083019190915260a082015260c00190565b9485526020850193909352604084019190915260608301526001600160a01b0316608082015260a00190565b6000838252604060208301526126c46040830184615253565b9182526001600160a01b0316602082015260400190565b93845260ff9290921660208401526040830152606082015260800190565b6000602082526120486020830184615253565b60006101e08201905061564c828551615206565b602084015161565e6020840182615206565b5060408401516156716040840182615206565b50606084015160608301526080840151608083015260a084015160a083015260c08401516156a260c0840182615206565b5060e08481015190830152610100808501519083015261012080850151908301526101408085015190830152610160808501516156e182850182615206565b505061018084810151908301526101a093840151938201939093526101c0015290565b6000838252604060208301526126c46040830184615213565b60ff91909116815260200190565b60405181810167ffffffffffffffff8111828210171561574a57600080fd5b604052919050565b6001600160a01b03811681146110f757600080fd5b60ff811681146110f757600080fdfea2646970667358221220d4d111e7f54baa9786b729736ee5466000eec152854eb56c29f50fcc5777408964736f6c63430007010033",
  "linkReferences": {},
  "deployedLinkReferences": {}
}